:020000040801F1
:1000000000000220D10B0108252E0108272E01082F
:10001000292E01082B2E01082D2E010800000000BA
:100020000000000000000000000000002F2E01086A
:10003000312E010800000000332E0108352E010882
:10004000350C0108350C0108350C0108350C010888
:10005000350C0108350C0108350C0108350C010878
:10006000350C0108350C0108350C0108350C010868
:10007000350C0108350C0108350C0108692E010802
:10008000452E0108512E0108350C0108350C0108D8
:10009000350C0108350C0108350C0108350C010838
:1000A000350C0108350C0108350C0108350C010828
:1000B000350C0108350C0108350C0108350C010818
:1000C000350C0108350C0108350C0108350C010808
:1000D000350C0108350C0108350C0108752E010896
:1000E000350C0108350C0108350C0108350C0108E8
:1000F000350C0108350C0108350C0108350C0108D8
:10010000350C0108350C0108412A0108350C01089D
:10011000350C0108350C0108350C0108C90E010821
:100120005D2E0108350C0108350C0108350C01085D
:10013000350C01080000000000000000350C01082B
:10014000350C0108350C0108350C0108350C010887
:10015000350C0108350C0108350C0108350C010877
:10016000350C0108350C0108350C0108350C010867
:10017000350C0108350C01080000000000000000EB
:08018000350C0108350C0108E3
:1001880010B5054C237833B9044B13B10448AFF3C9
:1001980000800123237010BDF4000020000000003F
:1001A800E062010808B5034B1BB103490348AFF3EC
:1001B800008008BD00000000F8000020E06201088F
:1001C80081F0004102E000BF83F0004330B54FEA00
:1001D80041044FEA430594EA050F08BF90EA020F6D
:1001E8001FBF54EA000C55EA020C7FEA645C7FEA00
:1001F800655C00F0E2804FEA5454D4EB5555B8BF23
:100208006D420CDD2C4480EA020281EA030382EA93
:10021800000083EA010180EA020281EA0303362D25
:1002280088BF30BD11F0004F4FEA01314FF4801CF8
:100238004CEA113102D0404261EB410113F0004F0A
:100248004FEA03334CEA133302D0524263EB4303C1
:1002580094EA050F00F0A780A4F10104D5F1200E5F
:100268000DDB02FA0EFC22FA05F2801841F10001BA
:1002780003FA0EF2801843FA05F359410EE0A5F18E
:1002880020050EF1200E012A03FA0EFC28BF4CF0BF
:10029800020C43FA05F3C01851EBE37101F0004575
:1002A80007D54FF0000EDCF1000C7EEB00006EEB82
:1002B8000101B1F5801F1BD3B1F5001F0CD349080C
:1002C8005FEA30004FEA3C0C04F101044FEA445263
:1002D80012F5800F80F09A80BCF1004F08BF5FEAEA
:1002E800500C50F1000041EB045141EA050130BDCA
:1002F8005FEA4C0C404141EB010111F4801FA4F16D
:100308000104E9D191F0000F04BF01460020B1FAC1
:1003180081F308BF2033A3F10B03B3F120020CDAF9
:100328000C3208DD02F1140CC2F10C0201FA0CF0D7
:1003380021FA02F10CE002F11402D8BFC2F1200C3C
:1003480001FA02F120FA0CFCDCBF41EA0C019040F2
:10035800E41AA2BF01EB0451294330BD6FEA04043B
:100368001F3C1CDA0C340EDC04F11404C4F1200226
:1003780020FA04F001FA02F340EA030021FA04F338
:1003880045EA030130BDC4F10C04C4F1200220FA8F
:1003980002F001FA04F340EA0300294630BD21FACD
:1003A80004F0294630BD94F0000F83F4801306BF93
:1003B80081F480110134013D4EE77FEA645C18BF87
:1003C8007FEA655C29D094EA050F08BF90EA020F1E
:1003D80005D054EA000C04BF1946104630BD91EA16
:1003E800030F1EBF0021002030BD5FEA545C05D119
:1003F8004000494128BF41F0004130BD14F5800458
:100408003CBF01F5801130BD01F0004545F0FE41CB
:1004180041F470014FF0000030BD7FEA645C1ABF00
:10042800194610467FEA655C1CBF0B46024650EA37
:10043800013406BF52EA033591EA030F41F4002163
:1004480030BD00BF90F0000F04BF0021704730B5E9
:100458004FF4806404F132044FF000054FF00001BE
:1004680050E700BF90F0000F04BF0021704730B57F
:100478004FF4806404F1320410F0004548BF404254
:100488004FF000013EE700BF42004FEAE2014FEAA9
:1004980031014FEA02701FBF12F07F4393F07F4F84
:1004A80081F06051704732F07F4208BF704793F087
:1004B8007F4F04BF41F40021704730B54FF460749A
:1004C80001F0004521F000411CE700BF50EA01029D
:1004D80008BF704730B54FF000050AE050EA010246
:1004E80008BF704730B511F0004502D5404261EBB6
:1004F80041014FF4806404F132045FEA915C3FF4F7
:10050800D8AE4FF003025FEADC0C18BF03325FEA93
:10051800DC0C18BF033202EBDC02C2F1200300FA44
:1005280003FC20FA02F001FA03FE40EA0E0021FA69
:1005380002F11444BDE600BF70B54FF0FF0C4CF457
:10054800E06C1CEA11541DBF1CEA135594EA0C0F09
:1005580095EA0C0F00F0DEF82C4481EA030621EA44
:100568004C5123EA4C5350EA013518BF52EA03357F
:1005780041F4801143F4801338D0A0FB02CE4FF031
:100588000005E1FB02E506F00042E0FB03E54FF061
:100598000006E1FB03569CF0000F18BF4EF0010E59
:1005A800A4F1FF04B6F5007F64F5407404D25FEA55
:1005B8004E0E6D4146EB060642EAC62141EA555108
:1005C8004FEAC52040EA5E504FEACE2EB4F1FD0C4A
:1005D80088BFBCF5E06F1ED8BEF1004F08BF5FEAC8
:1005E800500E50F1000041EB045170BD06F000467A
:1005F80046EA010140EA020081EA0301B4EB5C0427
:10060800C2BFD4EB0C0541EA045170BD41F480111E
:100618004FF0000E013C00F3AB8014F1360FDEBF43
:10062800002001F0004170BDC4F10004203C35DA1F
:100638000C341BDC04F11404C4F1200500FA05F3A2
:1006480020FA04F001FA05F240EA020001F0004243
:1006580021F0004110EBD37021FA04F642EB0601B9
:100668005EEA430E08BF20EAD37070BDC4F10C04E3
:10067800C4F1200500FA04F320FA05F001FA04F2A7
:1006880040EA020001F0004110EBD37041F1000193
:100698005EEA430E08BF20EAD37070BDC4F120059E
:1006A80000FA05F24EEA020E20FA04F301FA05F206
:1006B80043EA020321FA04F001F0004121FA04F2AE
:1006C80020EA020000EBD3705EEA430E08BF20EA7E
:1006D800D37070BD94F0000F0FD101F000464000B8
:1006E80041EB010111F4801F08BF013CF7D041EA3A
:1006F800060195F0000F18BF704703F0004652003E
:1007080043EB030313F4801F08BF013DF7D043EA0E
:100718000603704794EA0C0F0CEA135518BF95EAC4
:100728000C0F0CD050EA410618BF52EA4306D1D14B
:1007380081EA030101F000414FF0000070BD50EA6A
:10074800410606BF1046194652EA430619D094EAF4
:100758000C0F02D150EA013613D195EA0C0F05D1DE
:1007680052EA03361CBF104619460AD181EA030132
:1007780001F0004141F0FE4141F470014FF00000EA
:1007880070BD41F0FE4141F4780170BD70B54FF085
:10079800FF0C4CF4E06C1CEA11541DBF1CEA135505
:1007A80094EA0C0F95EA0C0F00F0A7F8A4EB0504E7
:1007B80081EA030E52EA03354FEA013100F08880DE
:1007C8004FEA03334FF0805545EA131343EA1263A7
:1007D8004FEA022245EA111545EA10654FEA00265C
:1007E8000EF000419D4208BF964244F1FD0404F515
:1007F800407402D25B084FEA3202B61A65EB030571
:100808005B084FEA32024FF480104FF4002CB6EB2D
:10081800020E75EB030E22BFB61A754640EA0C00AD
:100828005B084FEA3202B6EB020E75EB030E22BFED
:10083800B61A754640EA5C005B084FEA3202B6EB2E
:10084800020E75EB030E22BFB61A754640EA9C00ED
:100858005B084FEA3202B6EB020E75EB030E22BFBD
:10086800B61A754640EADC0055EA060E18D04FEA7B
:10087800051545EA16754FEA06164FEAC30343EA1B
:1008880052734FEAC2025FEA1C1CC0D111F4801FE8
:100898000BD141EA00014FF000004FF0004CB6E7E1
:1008A80011F4801F04BF01430020B4F1FD0C88BF80
:1008B800BCF5E06F3FF6AFAEB5EB030C04BFB6EB8B
:1008C800020C5FEA500C50F1000041EB045170BD7E
:1008D8000EF0004E4EEA113114EB5C04C2BFD4EBAB
:1008E8000C0541EA045170BD41F480114FF0000E2F
:1008F800013C90E645EA060E8DE60CEA135594EAAB
:100908000C0F08BF95EA0C0F3FF43BAF94EA0C0FAD
:100918000AD150EA01347FF434AF95EA0C0F7FF422
:1009280025AF104619462CE795EA0C0F06D152EA76
:1009380003353FF4FDAE1046194622E750EA41065A
:1009480018BF52EA43067FF4C5AE50EA41047FF46B
:100958000DAF52EA43057FF4EBAE12E74A0011D21D
:1009680012F5001211D20DD56FF47873B3EB625201
:100978000ED44FEAC12343F0004343EA505323FA0D
:1009880002F070474FF00000704750EA013002D182
:100998004FF0FF3070474FF0000070474FEA4102B8
:1009A800B2F1E04324BFB3F5001CDCF1FE5C0DD9C5
:1009B80001F0004C4FEAC0024CEA5070B2F1004F0F
:1009C80040EB830008BF20F00100704711F0804F12
:1009D80021D113F13872BCBF01F00040704741F4D7
:1009E80080114FEA5252C2F11802C2F1200C10FADB
:1009F8000CF320FA02F018BF40F001004FEAC123BF
:100A08004FEAD32303FA0CFC40EA0C0023FA02F362
:100A18004FEA4303CCE77FEA625307D150EA013338
:100A28001EBF4FF0FE4040F44000704701F0004008
:100A380040F0FE4040F40000704700BF4FF0FF3C1C
:100A480006E000BF4FF0010C02E000BF4FF0010CC0
:100A58004DF804CD4FEA410C7FEA6C5C4FEA430C39
:100A680018BF7FEA6C5C1BD001B050EA410C0CBF88
:100A780052EA430C91EA030F02BF90EA020F0020EA
:100A8800704710F1000F91EA030F58BF994208BF51
:100A980090422CBFD8176FEAE37040F0010070470E
:100AA8004FEA410C7FEA6C5C02D150EA013C07D165
:100AB8004FEA430C7FEA6C5CD6D152EA033CD3D0B0
:100AC8005DF8040B704700BF8446104662468C46AA
:100AD8001946634600E000BF01B5FFF7B7FF0028DD
:100AE80048BF10F1000F01BD4DF808EDFFF7F4FF06
:100AF8000CBF012000205DF808FB00BF4DF808ED91
:100B0800FFF7EAFF34BF012000205DF808FB00BFB3
:100B18004DF808EDFFF7E0FF94BF012000205DF8D5
:100B280008FB00BF4DF808EDFFF7CEFF94BF01208A
:100B380000205DF808FB00BF4DF808EDFFF7C4FF83
:100B480034BF012000205DF808FB00BF4FEA410CCC
:100B58007FEA6C5C02D150EA013C0AD14FEA430CAF
:100B68007FEA6C5C02D152EA033C02D14FF00000EC
:100B780070474FF0010070474FEA410212F500122A
:100B880015D211D56FF47873B3EB625212D94FEACC
:100B9800C12343F0004343EA505311F0004F23FAB6
:100BA80002F018BF404270474FF00000704750EA0B
:100BB800013005D111F0004008BF6FF000407047C8
:100BC8004FF00000704700BFDFF840D010481149CF
:100BD8000860004200BF002103E00F4B5B58435000
:100BE80004310E480E4B42189A42F6D30D4A02E0E1
:100BF800002342F8043B0C4B9A42F9D302F040F927
:100C080003F02CFE01F098FC704700000000022061
:100C18000000010808ED00E0006301080000002062
:100C2800F4000020F400002064600020FEE70000CB
:100C3800024B00221A700120704700BF11010020EA
:100C4800034A01231370034A10701846704700BF07
:100C58001101002010010020054A92F900302BB143
:100C6800044B1B7803700023137001231846704748
:100C7800110100201001002000224021014803F04A
:100C880089B800BF0008024008B1FFF7F5BF01228C
:100C98004021014803F07EB8000802400D4B1B6854
:100CA800DA6860B142F02002DA60DA6851B142F0E5
:100CB8008002DA60DA6842F04002DA60704722F0B7
:100CC8002002F1E722F08002DA60DA6822F04002BE
:100CD800F3E700BF005E00202DE9F041334886B0FD
:100CE8000F4616464021002200241D464FF00108F9
:100CF80003F050F8402301A92C48CDE90138CDE98B
:100D0800034402F067FF2A4B00941A6C42F48022D5
:100D18001A641B6CCDF80C8003F480230093009BAD
:100D28004FF440600223CDE901034FF0030C072381
:100D380001A92048CDE904C302F04CFF1E4B1F4A0D
:100D4800092EC2E900370CBF4FF4805323464545AE
:100D5800C2E9023423D00DB1022D23D00023136140
:100D68000C2100231548D361C2E9051303F0C1FC27
:100D780018B17221124801F0DDFC0022032127205E
:100D880002F0ECFA272002F01DFB01210846FFF7CC
:100D980085FFFFF771FF012006B0BDE8F0814FF431
:100DA800C063DCE74FF48063D9E700BF0008024066
:100DB800003802400004024000480040005E002065
:100DC800A45E0108034B1B68C0F3080058600120AB
:100DD800704700BF005E0020024B1B685B68037011
:100DE80001207047005E002070B5104C23681D6814
:100DF800A90602D50E4B1B6898476A0609D52368D1
:100E08006FF040021A60FFF737FF00210120FFF75B
:100E180045FF2B0608D523686FF080021A60054B42
:100E2800BDE870401B68184770BD00BF005E002019
:100E3800980400209004002037B5134B134C00256C
:100E480001951A6C42F020021A641B6C256103F0AC
:100E580020030193019B0E4B2360013841F2670385
:100E6800E06020466360A56003F0DEFA204603F0E8
:100E780059FA2A460321372002F070FA372002F087
:100E8800A1FA012003B030BD00380240540300200D
:100E98000014004010B5064C204603F04EFA2368B3
:100EA800002220465A62BDE8104003F03BBA00BF5A
:100EB80054030020014803F040BA00BF5403002047
:100EC800074B1B681A69D10708D5DA68D20705D518
:100ED8006FF001021A61034B1B681847704700BF87
:100EE800540300209404002070B5FF23074D084EDA
:100EF80001441C46814202D143EA042070BD10F827
:100F0800012B5A40AB5C6340B45CF3E7C45E010854
:100F1800C45F010810B50846144672B60822214677
:100F2800FFF7DAFE01280CD1B4F5964F97BF0748B2
:100F380023206400B0FBF4F080B2FFF77DFF0128A6
:100F480002D0032062B610BD0020FBE7A07F170087
:100F580008B572B6064B002101201970FFF79EFEF6
:100F68000120FFF791FEFFF795FF62B608BD00BFAD
:100F78001201002008B572B60120FFF785FE002196
:100F88000846FFF78BFEFFF795FF62B608BD000025
:100F98002DE9F04180460E46174672B60B4D2B8858
:100FA800032B03D8052062B6BDE8F081084C2988D8
:100FB8002046FFF799FF0028F4D114F8012B29885F
:100FC80088F80020033939803460ECE718010020E4
:100FD8009003002038B572B61A4B1D78EDB2012D7A
:100FE8002DD1194C4B1E2360184C258001F8010C9B
:100FF80021880A4492B2228021881846FFF774FF9C
:10100800238813499BB25A1C92B22280C2B2CA5496
:1010180023889BB25A1C92B2C0F307202280C8547E
:101028000C4B00201D70FFF72FFE0B4B1B689847D9
:1010380000202946FFF732FE002062B638BD0520A1
:10104800FBE700BF12010020140100201A01002054
:1010580090030020130100209004002007B50DF133
:101068000700FFF7B9FE164B1A78032A21D8DFE8E4
:1010780002F01E02111E134900220A800A8892B249
:10108800501C80B2088010499DF80700885402223D
:101098001A700CE00B4A1188FF290ED813889BB2EE
:1010A800591C89B21180084A9DF80710D154FFF7DE
:1010B800F1FE002003B05DF804FB0322E8E700BF5F
:1010C80012010020180100209003002070B50E4E78
:1010D8003378012B10D10D4D2C88A4B274B10C4C6F
:1010E8002368187840B2FFF76DFE23680133236048
:1010F8002B88013B9BB22B80002003E00320FFF7E5
:101108009FFD347070BD00BF130100201A0100203C
:101118001401002038B5094C227802F0FF004AB1CA
:10112800022806D00025FFF7C5FE012323702846B4
:1011380038BD0120FFF784FD0546F4E712010020C1
:1011480038B50B88052B0C462CD1B0F8032052BAC1
:1011580092B2531E9BB240F2CE718B4222D800232A
:10116800B0F8011023800123037023880133238002
:10117800C2F3C70553071CBF0135EDB2457023887C
:1011880049BA01330131238089B20023023001F0CA
:10119800CDFA18B1BDE8384000F072B9228815447C
:1011A800258038BD0320FCE70B88052B13B51DD11E
:1011B8000479DCB9C3785A1ED2B2FD2A16D9A3F134
:1011C800FF02B0F801108DF805405342534149BA67
:1011D8008DF80430013101231A4689B201A801F0C3
:1011E800A5FA08B100F04CF902B010BD0320FBE7E6
:1011F8000B88052B10B50C4623D9B0F8032052BA3A
:1012080092B25107C2F3C70318BF013302F1FF318D
:1012180018BFDBB2B1F5F66F13D24179994210D1FC
:10122800B0F8011049BA0131012389B2063001F042
:101238007DFA18B1BDE8104000F022B905222280DD
:1012480010BD0320FCE738B50B88052B0C462BD1C5
:10125800B0F8032052BA92B2531E9BB240F2CE713C
:101268008B4221D80023B0F8011023800223037099
:10127800238801332380C2F3C70553071CBF0135F8
:10128800EDB24570238849BA01330131238089B210
:10129800023001F04DFA18B1BDE8384000F0F0B85E
:1012A80022881544258038BD0320FCE708B50B8843
:1012B800052B0ED1B0F8011049BA013101231A46A5
:1012C80089B2033001F00EFA20B1BDE8084000F001
:1012D800D7B8032008BD0B88052B10B50C461CD9C0
:1012E800B0F8032052BA92B2531E772B15D8530088
:1012F8004179DBB2994210D1B0F8011049BA0131F5
:10130800012389B2063001F0EDF918B1BDE81040AB
:1013180000F0B6B80522228010BD0320FCE70B8838
:10132800052B70B50C4623D1027995B26B1E7C2B28
:101338001ED803260023B0F80110238006702688E3
:101348005200013626804270228849BA01320131A2
:10135800228089B22A46023001F0C4F918B1BDE8EA
:10136800704000F08DB8228802EB4505258070BDDD
:101378000320FCE70B88092B2DE9F04104460D46B4
:1013880039D9B0F8036076BAB6B2731E7C2B34D85C
:10139800B0F8072052BA92B2531E782B2DD8437A50
:1013A800B3EB420F29D1B0F80510B0F8017049BA73
:1013B8000131012389B20A3001F094F90346F0B9EA
:1013C8001722288022702A884FEA460801322A808C
:1013D80084F801802A8879BA013201312A8089B2D9
:1013E8003246A01C01F07EF948B92B889844A5F82C
:1013F8000080BDE8F0810020FBE70320F9E7BDE8A5
:10140800F04100F03DB838B50B88052B0C4623D1C8
:10141800B0F8032052BA92B2531E7B2B1CD800237B
:10142800B0F801102380042303702388550001338A
:1014380023804570238849BA01330131238089B25A
:10144800023001F03BF918B1BDE8384000F018B897
:1014580022881544258038BD0320FCE738B5064BA3
:101468001C880D46224605490134013003F01AFA5A
:101478002C80002038BD00BF3C0100201C0100204A
:1014880007289ABF014B185C04207047C460010804
:10149800084610B5114672B6084A0A241470072285
:1014A800FFF71AFC012804D10020FFF7C5FC01282A
:1014B80002D0032062B610BD0020FBE748010020DF
:1014C80008B572B60120FFF7DFFB044B0020187047
:1014D80062B6BDE80840FFF7B3BB00BF3F0100207C
:1014E80008B572B60120FFF7CFFBFFF7E3FC62B641
:1014F80008BD0000F0B572B6114D2B88022B1DD91E
:101508002C88104EA4B2002337464FF6FF7C013CCE
:10151800A4B264450DD15B4213F0FF030ED13C78B1
:101528000470288802381080074A0A60184662B694
:10153800F0BD16F801EB7344DBB2E8E70520F6E7E7
:101548004A010020900300209103002070B572B674
:101558001A4B1C7804F0FF03002C2DD1184C4D1E9B
:101568002560184C0126268001F8010C21880A44C0
:1015780092B2228022884FF6FF7192B2013A92B25B
:101588008A4214D1228892B2511C89B221805B42CE
:101598000D49DBB253540D4B012200201A70FFF79E
:1015A80073FB0B4B1B689847002062B670BD15F89B
:1015B800010B0344DBB2E1E70520F6E73F01002019
:1015C800440100204C01002090030020400100202D
:1015D8009004002073B5404D0DF10700FFF7FCFBA8
:1015E8002B78DBB2012B2E4606D05CB2002C65D0DE
:1015F800022B47D000200AE0FFF74CFC9DF807209B
:101608003A2A06D1354B00201870354B188002B0A5
:1016180070BD0D2A02D102232B70EBE7A2F1300333
:10162800DBB2092B07D9A2F14103052B9ABFA2F11E
:101638003703DBB2FF2329490A7802F0FF047AB1A5
:10164800012CD7D12648274D028892B2545D2343F6
:101658005355038801339BB2038000200870D6E7F6
:101668001F4A1088FF2809D812881E4892B21B0109
:10167800DBB2135401230B702046C8E73470FFF720
:1016880019FCB7E7184A9DF80730127893424FF0D3
:10169800000406D1FFF70EFC01202C70FFF7D0FAEA
:1016A800B5E73A2B08D10D4B1C700D4B1C8001235C
:1016B8002B70FFF7EFFBDFE72C709BE79DF80730F7
:1016C8003A2BD9D1FFF7E6FB054B1C80034B1C7066
:1016D80001232B70D0E700BF3F0100203E0100200E
:1016E8004A010020900300204801002070B52F4DCA
:1016F8002B780026042B19D8DFE803F053030D429A
:1017080049003A20FFF75EFB02232B70284B002488
:101718001C70204670BD274E3488A4B254B3244DA3
:101728002B7803F0FF021BB1012A0ED00024F0E74A
:10173800214B1B6818780009092894BF30303730CE
:10174800FFF740FB01232B70F0E71B4C2368187848
:1017580000F00F00092894BF30303730FFF732FB14
:1017680023680133236000242C703388013B9BB22B
:101778003380CEE70D20FFF725FB03232B70C8E746
:101788000E4B187840B2FFF71DFB0423DBE703205C
:101798002E70FFF755FA04460120FFF775FA2E70F0
:1017A800B7E70120FFF770FAC0E700BF400100204B
:1017B8003E0100204C010020440100204801002087
:1017C800054A08B51378013B012B9CBF0023137011
:1017D800FFF770FB002008BD3F01002070B50446EC
:1017E8000846451EEDB2F62D11461A469DF81030F2
:1017F80004D8234D28701CB1012C24D0022420E0E9
:10180800204D214E2E60214D214E2E60214D224E1D
:101818002E60224D224E2E60224D2C60224C234DEC
:101828002560234C234D2560234C244D2560FFF76C
:1018380071FB044628B9FFF7FBF9F8B1204B0122E8
:101848001A70204670BD0F4C1E4D25600F4C1E4D62
:101858002560104C1D4D2560104C1D4D2560114C08
:1018680000252560104C1B4D2560114C1A4D256034
:10187800114C1A4D2560FFF70BFEDAE70324E0E769
:10188800650100205C010020590F0108600100205B
:101898007D0F010854010020DD0F010850010020D0
:1018A800990F0108580100209804002065100108CC
:1018B80090040020D5100108940400201D1101088F
:1018C80000000020C9140108E91401085515010891
:1018D800FD140108DD150108F5160108C9170108EE
:1018E80010B5064C2378012B05D1054B1B6898478A
:1018F8000020207010BD0620FCE700BF000000207B
:101908005C0100202F4BF7B51C78002C58D10DF145
:101918000700FFF7A1F90128034601D0002405E0DC
:101928009DF80720012A04D0022A17D0204603B0C8
:10193800F0BD254D254B264A1B6826492846984761
:1019480004460028EAD1244A2B7812789A4201D01A
:10195800002BE3D10220FFF773F9E7E71D4D1F4E77
:1019680028681F4F027833701E4B3A7013F83410F2
:1019780039B18A4220D103EBC404154963689847FA
:101988003070114B1B78002BC8D03178104B59B1EF
:101998003A782868012462F07F021C8002701A8855
:1019A800286814191C8081540F4A296814681A88F9
:1019B800094B1878A047B1E70134102CD6D1E0E7DD
:1019C8000624B3E7000000206C010020500100202D
:1019D8006E01002068010020650100204E010020F2
:1019E800640100200400002054010020064B4FF63B
:1019F800FF72984201D90120704701888A4201D1BB
:101A08000430F6E700207047FFBF000810B5002338
:101A180086B0CDE900330122022312480593CDE9AF
:101A28000332FFF7E3FF98B1002200230D4901209C
:101A380001F0D4FF044690B903230B480393FFF742
:101A4800D5FF60B9694601A802F076F8044606E0B9
:101A5800694601A802F070F804460028E4D0204640
:101A680006B010BD0080000800C0000838B51B4B48
:101A78001B88054698B21A4B1B889BB283B94EF651
:101A8800EE63C31A18BF012303F500541548023446
:101A98000133A40300EB83339C4208D3802011E078
:101AA800D0B94EF6EE629A1A53425341ECE72268D7
:101AB80001320FD10A4600232146012001F08EFF92
:101AC80008B180B238BD2A460023A11C012001F0CC
:101AD80085FFF6E70434DFE7AB20F3E70080000872
:101AE80000C00008FF7F0008104B114A1B881288AD
:101AF8009BB270B592B20BB1B2B901239C030D4AE7
:101B08000D4B224423440D4C934201D3012008E09D
:101B1800158834F81060AE4204D132F8023C0B80CC
:101B2800002070BD043AEFE7AB20FAE70080000818
:101B380000C00008FEBF000802800008A4040020BE
:101B48002DE9F041614D86B0002300932A464FF4F9
:101B5800805341F2460122F8023B01339BB28B428B
:101B6800F9D15B485B4A048813880021012601915A
:101B78000221A4B2CDE903164EF6EE66B4429BB23A
:101B8800059128D04FF6FF718C4205D00CB9002B77
:101B980065D1FFF73BFF1BE043B9FFF727FF00289C
:101BA80000F08F80002006B0BDE8F081B342F0D18C
:101BB800FFF71CFF30B9694601A801F0BDFF08B165
:101BC80080B2F0E7434900220023012001F006FF1C
:101BD8000028E7D0F4E773BBDFF800813E4F1C46CE
:101BE8004FF0FF36B8F8003035F8020B984208BFBE
:101BF80026B2A64212D10134462CF3D1002200238A
:101C08003349012001F0EAFE0028D9D1012303223B
:101C1800CDE90323022305932E48BEE72E49FFF79B
:101C280063FF0128E7D0398835F8020CFFF71EFF5B
:101C38000028E0D0B7E74FF6FF718B42A9D1032304
:101C480010460393FFF7D2FE28B9694601A801F0B0
:101C580073FF0028B4D1002200231D49B5E78B4249
:101C680002D103230393D7E7DFF874801A4F4FF0AC
:101C7800FF36B8F8003035F8020B984208BF26B294
:101C8800A64211D10134462CF3D100220023114978
:101C9800012001F0A3FE002892D102230122CDE900
:101CA800033205930A4878E70B49FFF71DFF01281F
:101CB800E8D0398835F8020CFFF7D8FE0028E1D0C3
:101CC80071E7694601A801F037FF81E7A404002005
:101CD8000080000800C0000870010020068000088D
:101CE80006C000082DE9F047314D86B0074635F8A3
:101CF80010000E46FFF7BAFE8028044643D12D494E
:101D080035F817802C4D0A88002300932B8892B24F
:101D18009BB272B1002B49D14FF003090D464EF624
:101D2800EE6200232946012001F058FE20B184B25A
:101D380029E04FF00209F2E731464046FFF796FEE8
:101D4800044600BB1A4FDFF874A0462637F8020B8A
:101D580080451CD1013EB6B2002EF7D10196022370
:101D68000126694601A8CDF80C90CDE9046301F07D
:101D7800E3FE0028DBD1002200232946304601F08B
:101D88002DFE0028D3D1204606B0BDE8F0870B49C8
:101D9800FFF7AAFE0128DDD0BAF8001037F8020CC8
:101DA800FFF764FE0028D5D00446ECE7AB24EAE749
:101DB800A40400200080000800C000087001002072
:101DC800836B01221A717047836B1A6942F004020F
:101DD8001A6101221A71704770470000034B186896
:101DE800012804BF00221A60704700BF7401002058
:101DF8002DE9F0472DED028B574C5848A388B0FBCE
:101E0800F3F082B0FEF72EFB0022554BDFF860811D
:101E1800FEF7DCF9534B0022FEF7D6F9FEF7BEFDBC
:101E280007EE900A2689B4F802A0FCEEE77A4FF094
:101E38008043C3ED0A7A35460027C146BE4212DC0C
:101E4800E788B4F800804FF4B47303FB0767AF4228
:101E580031DC4FF00823B7F5616F75DB02B0BDECDC
:101E6800028BBDE8F0873846FEF7FCFA38A3D3E9C1
:101E78000023FEF761FB00223B4BFEF787FC41EC99
:101E8800100B02F01DFD53EC102B5046CDE900233A
:101E9800FEF7E8FADDE90023FEF74EFB0022334B9C
:101EA800FEF794F9FEF75AFD80B200F1006048F899
:101EB800040B0137C2E7A81BFEF7D4FA24A3D3E921
:101EC8000023FEF739FB0022274BFEF75FFC41ECAD
:101ED800100B02F0F5FC2846B0EE408AF0EE608A5E
:101EE800FEF7C0FA1AA3D3E90023FEF725FB002268
:101EF8001D4BFEF74BFC41EC100B02F0E1FC404699
:101F08008DED000BFEF7AEFA53EC182BFEF714FB21
:101F18000022164BFEF75AF9FEF720FD040450463E
:101F2800FEF7A0FA9DED000B53EC102BFEF704FB17
:101F380000220E4BFEF74AF9FEF710FD14FA80F066
:101F480049F82500013582E749F82730013782E74B
:101F5800182D4454FB211940FA5C0020BBC701002E
:101F68000000E03F0000F03F008076400000A04005
:101F7800E821002008B50B4BDA8818890A4B4FF482
:101F8800B47103EB4000514300F026FC10EE100A38
:101F9800FEF77AFA0022054BFEF718F9FEF7DEFC89
:101FA80080B208BDFA5C0020300500200000E03F48
:101FB800224BB3F85020824230B51D4601D8988A8A
:101FC80030BDB3F88A20824202D3B3F84E00F7E757
:101FD80003F15201012331F8024B8442DAB203D3F0
:101FE80001331E2BF7D11A4605EB420305EB4204D9
:101FF8005B8AA48A02F12701283235F8111035F8D6
:102008001220E41A07EE904A8A1AB8EEE77A07EE29
:10201800902AF8EEE77A091AC7EE276A07EE903A8F
:1020280007EE101AF8EE677AB8EEC77AE6EE877A06
:10203800FCEEE77A17EE903A98B2C1E7FA5C002016
:1020480030B585B00025114B01951A6C104C42F043
:1020580001021A641B6C256103F001030193019BC3
:10206800A5604FF0804323600123E360204642F2DD
:102078001073636002F0D8F9202302A92046CDE945
:10208800023502F0EBF905B030BD00BF0038024060
:10209800AC21002030B585B0FFF7AAFEFFF7D0FFCE
:1020A8003348344B036001F0BFF918B1C9213248F5
:1020B80000F040FB00242425224669462C48CDE93F
:1020C800005401F0F2F94FF40063224621462848F3
:1020D80001F00BFA2146264801F0B9F922464FF4DF
:1020E80000631021224801F000FA1021204801F075
:1020F800AEF9102269461E48CDE9005401F0D5F921
:1021080018B1DE211C4800F015FB1C481C494FF48F
:1021180080330122C0E900130023C0E90233C0E97B
:1021280004338361C0E907234FF0C0644FF0805344
:102138004262C0E90A43026300F000FF18B1AD2112
:102148000D4800F0F7FA01230322CDE90023694680
:1021580000230A48029301F05DF818B1BB21064834
:1021680000F0E8FA074B00221A6005B030BD00BF46
:102178009821002000740040CC6001085021002004
:10218800002001407401002068B513464279012AF5
:1021980005464FF0020020D028710122A8686A7114
:1021A8000E4AC2630E4A02640E4AC2642A6816685E
:1021B80046F480561660166846F4005642F8206BBE
:1021C80001F05EFA2B681A6842F001021A601A6878
:1021D800002042F480321A60687168BDC91D010888
:1021E800E11D0108D11D010838B50D4D0D4B0E49F3
:1021F8000E4800221A60EA884FF4B47402FB0442C5
:10220800FFF7C2FFEA882B8909490A4804FB023212
:1022180000F03EFF0848BDE8384002F076B800BF3D
:10222800FA5C002074010020E82100209821002099
:102238003005002050210020AC210020014B012254
:102248001A6070477401002010B594B00021284B23
:1022580001911A6C42F080521A641B6C03F080538F
:102268000193019B234B02911A6842F480421A6041
:102278001B6803F480430293029B01214FF48033CF
:102288000224CDE908134FF480030820CDE90E435A
:102298004FF4A873CDE91003072308A812941393E9
:1022A80001F07EFD00B1FEE70F23CDE90334059070
:1022B8004FF4A0524FF48053052103A8CDE906231B
:1022C80001F038FF044600B1FEE701F0E7FF4FF4E4
:1022D8007A73B0FBF3F001F081F8042001F094F870
:1022E800224621464FF0FF3001F038F814B010BDF7
:1022F800003802400070004084B0164B0022009263
:10230800196B41F080011963196B01F0800100918C
:1023180000990192196B41F004011963196B01F0DE
:102328000401019101990292196B41F001011963AD
:10233800196B01F001010291029903921A6B42F0A4
:1023480002021A631B6B03F002030393039B04B09E
:10235800704700BF00380240F8B52E4D2E4C298832
:1023680023888B4204D00020FFF7BCFC2B882380F5
:10237800698863888B4204D00120FFF7B3FC6B881F
:102388006380298923898B4204D00220FFF7AAFCA5
:102398002B892381A988A3888B4204D00420FFF7C6
:1023A800A1FCAB88A380E988E3888B4204D006208F
:1023B800FFF798FCEB88E380698A638A8B4204D034
:1023C8000720FFF78FFC6B8AE380144F144E154DDE
:1023D8001E2435F83C1C37F8023B994208D0C4F15A
:1023E800260080B2FFF77EFC35F83C3C27F8023C1B
:1023F80035F8021B33888B4207D0C4F1440080B201
:10240800FFF770FC35F8023C3380013C06F1020608
:10241800DFD1F8BDFA5C0020405E0020C45D0020DA
:10242800885D00204A5D00202DE9F8433849394E7F
:10243800DFF80081384F0020FFF756FB37490120AD
:10244800FFF752FB36490220FFF74EFB35490420BF
:10245800FFF74AFB34490620FFF746FB33490720BC
:10246800FFF742FB3546082429462046FFF73CFB88
:10247800A94604F11E0005F13C0180B20235013481
:10248800FFF732FBA4B2B9F8003028F8023B262C3B
:102498006B8F27F8023BE7D11D4C254801232146C5
:1024A8008E22A4F88C3002F0FDF92389B3F5B47FAD
:1024B80021460DD8638A013B032B09D80023A1F8D4
:1024C8008A30CB88082B20D8BDE8F843FFF744BFF3
:1024D8004FF4FA730B804FF47A734B8064238B802C
:1024E8005A230B810123CB804B824FF4FA620023DD
:1024F80040F6B83026F8023B64339BB272878342B9
:10250800A2F11E0292B2F5D1D8E70823CB80DBE70F
:10251800FA5C00200E5D0020885D0020FC5C002035
:10252800025D0020FE5C0020005D00200C5D0020A4
:10253800405E0020C45D00202DE9F04F85B000F01A
:10254800D5FCFFF781FEFFF7D7FE01F00BFAFFF786
:10255800F7FA074600B1FEE74F4C504E504DDFF8F2
:102568004CA1DFF84C81FFF75FFF01213A464FF499
:10257800E133009738466182A4F88C103170FFF778
:102588002DF92870FFF7ACF9287000F069F9FFF70A
:1025980081FD8AF8007000F0CBFC424D424B186078
:1025A800FFF726FC00F0ECF82F60FFF71DFE042073
:1025B800C8F8007000F0DEF940F2D243638100F001
:1025C800E9F937705746DFF8ECA004F10E0BFFF776
:1025D80099F92B6883B9FFF701FC01280CD1039006
:1025E800FFF7C8FCA081FFF7E3FC3278E081039B8A
:1025F800002A42D102232B602B68012B07D100F05F
:1026080097FC484503D900232B60FFF7EDFDD8F868
:102618000030012B0DD12B68022B0AD10023C8F8FA
:1026280000302B60FFF7E0FD337813B9584600F00F
:102638006FFA33783BB900F0A7F9052803D100F009
:10264800D7F900F0A7F93B78002BC0D000233B70E6
:10265800FFF782FEFFF7CCFBB4F88C30BAF88C2079
:102668009A42B4D0039393B900F094F9039B337062
:10267800B4F88C30AAF88C30A9E72B6000F058FC2D
:102688004FF4FA69A388B9FBF3F98144B4E700F081
:10269800AFF90123EBE700BFFA5C002084000020BB
:1026A800F85C00207C010020D05E0020780100202A
:1026B80080010020405E00207047000010B569B11D
:1026C8008C1840F259239C4208DC054B0139520012
:1026D80003EB410102F0E6F8002010BD0120FCE701
:1026E8003005002038B51C46C9B18B18C92B16DC3B
:1026F8004B1E1CB1012C08D0002038BD09495200DE
:1027080001EB430102F0CEF8F6E701460548520016
:1027180000EB430002F0C6F8034B1C70ECE7012005
:10272800EBE700BFFA5C0020780100200120704729
:1027380001207047FEE70000B0F5B47F15DAB32832
:10274800C6BFB4384FF0FF33012307EE903A59283B
:10275800074BC8BFC0F1B40003EB8000B8EEE70A2E
:10276800D0ED007A20EE270A7047A0F5B470E3E7B1
:10277800D45E00205A30FFF7DFBF000000000000E1
:102788002DE9F8430FF24809D9E900890E4D0F4F9A
:10279800002400262046FDF765FE42464B46FDF71D
:1027A800CBFE32463B46FDF7F1FF41EC100B02F041
:1027B80087F851EC100BFEF7F1F801345B2C45F863
:1027C800040BE7D1BDE8F883D45E00200080764092
:1027D800182D4454FB2119409FED207A10B5002292
:1027E8000446F0EE476A8A4223DB07EE901A37EE7A
:1027F800077AB8EEE76A76EEA66AC7EE067AC6EEFC
:10280800865A67EEA77AE5EEA57AF5EEC07AF1EE7C
:1028180010FA20DD17EE900AFDF736FE41EC100B9A
:1028280002F0AEF851EC100BFEF7B8F800EE100A03
:1028380010BD34F8123006EE103A1046B8EEC66AEB
:10284800FFF798FF1046E6EE006AFFF775FFA6EE61
:10285800007A0132C7E70020E8E700BF0000000067
:1028680073B50025384E0095336B384C384A43F41D
:1028780000133363336B03F400130093009B4FF092
:102888006063C4E900234023C4E902354FF4806340
:10289800C4E9043503214FF40003C4E90A132046B0
:1028A8004FF400132363C4E90655C4E9085500F042
:1028B80045FE284BA363294601220F201C6300F024
:1028C8004DFD0F2000F07EFD0195336C43F00803A9
:1028D8003364336C012203F008031146019332205C
:1028E800019B00F03BFD322000F06CFD1A4B18688C
:1028F800FDF7A8FD0022194BFDF71EFE0022184B1C
:10290800FDF744FF0EA3D3E90023FDF715FE0022CF
:10291800144BFDF711FE0022134BFDF755FCFEF793
:102928001DF8124B124A1A60586040F2E7321846F6
:10293800DA601D619D6001F077FD00BF02B070BDD7
:10294800176CC1166CC1163F003802408401002084
:1029580070600240005E0020880000200000E03F18
:1029680000408F4000001C400000F03F540200204F
:10297800000C0040024B1870024B30301870704742
:1029880085000020F0010020014B1878704700BF37
:10299800E8010020104B1148012210B51A700024DC
:1029A8000F4B224640211C6001F0F4F90D4B0E48F4
:1029B8001B68DA6842F02002DA60DA6822F08002E6
:1029C800DA60DA6822F04002DA60084B1C60BDE881
:1029D800104001F0B2BC00BFE8010020000802402E
:1029E800E4010020005E002054020020EC010020D9
:1029F800094B1A68D36810B543F02003074CD3601D
:102A08002278042A04D000224021054801F0C2F9A6
:102A18000023237010BD00BF005E0020E8010020E5
:102A280000080240034B1A68D36843F04003D360A0
:102A3800704700BF005E002037B52C482C4C036857
:102A48006FF001021A612378012B0DD1294A13680E
:102A58000133B3F5FC5F136004D300BF01F06DFCD4
:102A68000523237003B030BD2378022B05D11F48FE
:102A780003B0BDE8304001F060BC2378052BF6D0E8
:102A88001D4A1E4913680868013313601C4A92F9ED
:102A98000020013A934210D101224021194801F047
:102AA80079F9142300BF013BFCD1174917480322C9
:102AB80003B0BDE8304001F04BBE082BD2D18306ED
:102AC80042BF4B68DBB28DF80730104B1B68DA68E1
:102AD80042F02002DA60DA6842F02002DA6001236C
:102AE8002370044B00221A60BCE700BF5402002088
:102AF800E8010020E4010020EC010020004800402B
:102B08008500002000080240F0010020005E00203F
:102B180070B5184B02785A70174C42789A70227820
:102B2800164B174D0026022A1E6004D0284601F0D5
:102B380004FC2B685E622B6811486FF001021A6171
:102B480001F0F0FB042323700E4B93F90020012AB7
:102B58000ED140210C4801F01DF9142300BF013BA0
:102B6800FCD1032203490948BDE8704001F0F0BDDB
:102B780070BD00BFF0010020E8010020EC0100203A
:102B8800540200208500002000080240005E00205A
:102B98002C4B73B51D68A90615D55B68DBB28DF89B
:102BA8000730294B1A78012A0DD1284C2268032AAC
:102BB80009D8DFE802F00221292F9DF80730532BAE
:102BC80001D1012323606A060ED51E4B20486FF001
:102BD80040021A604021002201F0DCF81D4B1A68FF
:102BE800D36823F04003D3602B0642BF154B6FF028
:102BF80080021A6002B070BD9DF80730742B01D1B5
:102C08000223DFE70023DDE79DF80730612BF9D1C8
:102C18000323D7E79DF80720722AF3D10E4A0F4EF7
:102C2800012111600B4A1168CA6822F02002CA60AB
:102C3800304602221A7001F080FB3268002353628A
:102C4800C0E700BF00480040E801002090020020D3
:102C580000080240005E002080010020540200208D
:102C680008B5032000F068FB002211466FF00B0046
:102C780000F074FB002211466FF00A0000F06EFBB2
:102C8800002211466FF0090000F068FB002211468F
:102C98006FF0040000F062FB002211466FF00300A1
:102CA80000F05CFB002211466FF0010000F056FBBB
:102CB800002211464FF0FF30BDE8084000F04EBB3F
:102CC80070B50268244B9A4288B0064642D1002566
:102CD80003F58C3301951A6B2048214C42F480028D
:102CE8001A631A6B02F480020192019A02955A6CD7
:102CF80042F480725A645B6C059503F48073029306
:102D08000822029B03A90323CDE9032300F062FFF5
:102D1800144B4FF48061C4E900354FF40063C4E9F3
:102D280004134FF40053C4E9063520464FF48033AA
:102D38002362C4E9025500F07FFC204600F0FEFB48
:102D4800B46338202A460121A66300F007FB382027
:102D580000F038FB08B070BD0020014000000240C0
:102D6800940200201064024070B50268274B9A4212
:102D780088B0064647D1002503F5E23301951A6B62
:102D88002348244C42F400121A631A6B02F400120E
:102D98000192019A02951A6C42F000521A641B6C57
:102DA800059503F0005302933022029B03A90323E5
:102DB800CDE9032300F00EFF174925634FF0606348
:102DC800C4E900134023C4E902354FF480604FF48E
:102DD8008053C4E904034FF48043C4E906354FF433
:102DE8000033C4E9083520460123C4E90A3500F058
:102DF800A5FBB46010202A460221A66300F0AEFAB3
:102E0800102000F0DFFA08B070BD00BF0074004069
:102E180000000240F4020020886002407047FEE78C
:102E2800FEE7FEE7FEE770477047704708B500F019
:102E380077F8BDE8084000F0F3BA0000014B986845
:102E480000F05CBC98210020014BD86800F056BC0B
:102E580098210020014B986B00F050BC50210020B5
:102E6800014B186B00F04ABC005E0020034B1B7836
:102E7800012B01D1FDF7B8BFFFF78ABE84000020FF
:102E88000D4AD2F8883043F47003C2F888300B4BEF
:102E98001A68002142F001021A6099601A6822F04B
:102EA800847222F480321A60054A5A601A6822F441
:102EB80080221A60D960704700ED00E000380240B7
:102EC8001030002410B5084B044618684FF47A7384
:102ED800B0FBF3F000F082FA002221464FF0FF30F9
:102EE80000F03CFA002010BD8800002008B50B4B0C
:102EF8001A6842F400721A601A6842F480621A6012
:102F08001A6842F480721A60032000F015FA002053
:102F1800FFF7D8FFFFF7A4FE002008BD003C0240E1
:102F2800024A136801331360704700BF40600020F5
:102F3800014B1868704700BF4060002010B5044678
:102F4800002800F09F80036C23B9436480F83C306C
:102F5800FFF7B6FE236CDB0600F19280236C23F4A6
:102F6800885323F0020343F002032364464B5A6854
:102F780022F440325A605A6861680A435A602368EA
:102F880021695A6822F480725A605A6842EA01221A
:102F98005A605A68A16822F040725A605A680A4317
:102FA8005A609A68E16822F400629A609A680A4353
:102FB8009A603649A26A8A4256D0996821F07061AF
:102FC800996099680A439A609A68E16A22F04052C7
:102FD8009A609A680A439A609A68A16922F0020284
:102FE8009A609A6842EA41029A60226A002A43D0AB
:102FF8005A6842F400625A605A6822F460425A6081
:103008004FF4604292FAA2F2B2FA82F1626A586808
:10301800013A8A4002435A60DA6AE16922F470028E
:10302800DA62DA6A013942EA0152DA629A68216B95
:1030380022F400729A609A6842EA41229A609A6879
:10304800616922F480629A609A68002042EA8122CB
:103058009A606064236C23F0030343F00103236444
:10306800002384F83C3010BD9A6822F070629A60A0
:103078009A6822F04052AEE75A6822F40062CAE722
:103088000120EDE70120EEE7002301400100000FD9
:1030980037B513460022019290F83C20012A0446D5
:1030A80065D00568012280F83C20AA68D20705D5BA
:1030B800AA68D00715D4002003B030BDAA6842F032
:1030C8000102AA602B4A10682B4AB0FBF2F000EB11
:1030D80040000190019A002AEAD0019A013A01922F
:1030E800F8E7206C20F4E06020F0010040F48070E4
:1030F80020646A68520541BF206C20F4405040F4B7
:1031080080502064226CA06B12F480521CBF626C49
:1031180022F006026264002284F83C20174AC26347
:10312800174A0264174AC2646FF022022A606A686A
:1031380042F080626A60AA6842F48072AA600A4615
:1031480005F14C0100F09CFA0F4B5B6813F01F0F60
:10315800236808D1986810F04050ACD19A6842F0C2
:1031680080429A60A8E7094A9342A4D1F2E7022074
:10317800A2E700BF8800002040420F0099310108F3
:10318800FB310108073201080023014000200140FB
:10319800836B1A6C12F0500F10B524D11A6C42F4DC
:1031A80000721A641A68916811F0405F17D1996922
:1031B800A9B9D16A11F4700F02D0916849050ED4EB
:1031C800516821F0200151601A6C22F480721A644F
:1031D8001A6CD2045EBF1A6C42F001021A641846D7
:1031E800FFF72CF810BD9B6BBDE81040DB6C18474F
:1031F800704708B5806BFFF7FBFF08BD7047806B11
:1032080008B540230364436C43F004034364FFF7A9
:10321800F5FF08BDF7B50023019390F83C30012B6A
:1032280066D00D688E680123092D80F83C30ACB259
:10323800036829D904EB4402DF681E3A4FF0070CF3
:103248000CFA02FC27EA0C07DF60DF6806FA02F2D4
:103258003A43DA604968062901EB810224D8596BA0
:10326800053A1F26964021EA06015963596B04FA6C
:1032780002F20A435A632C4A934231D0002380F861
:103288003C30184603B0F0BD1F6905EB45024FF00E
:10329800070C0CFA02FC27EA0C071F611F6906FAE3
:1032A80002F23A431A61D5E70C294FF01F010BD8F7
:1032B8001E6B233A914026EA01011963196B04FA3F
:1032C80002F20A431A63D6E7DE6A413A914026EAD7
:1032D8000101D962D96A04FA02F20A43DA62CAE73A
:1032E800122D07D1114A536843F480035360C5E790
:1032F8000220C7E7A5F11003012BBFD80B4A53687A
:10330800102D43F400035360B8D1094B094A1B68D8
:10331800B3FBF2F20A2353430193019B002BADD078
:10332800019B013BF8E700BF00200140002301405A
:103338008800002040420F00074AD36823F4E06366
:1033480000021B0400F4E0601B0C184340F0BF604F
:1033580040F40030D060704700ED00E0174B70B5C6
:10336800DC68C4F30224C4F10705042D04F1040346
:1033780028BF04254FF0FF36062B06FA05F58CBF4B
:10338800033C002421EA0501A14006FA04F422EADC
:103398000403002843EA0103A8BF00F160404FEA94
:1033A8000313BCBF00F00F00054ADBB2AABF00F54B
:1033B8006140135480F8003370BD00BF00ED00E099
:1033C80014ED00E04209012300F01F0003FA00F0A9
:1033D800014B43F82200704700E100E00138B0F1EA
:1033E800807F0AD2064B074A5860F02182F82310E2
:1033F8000020072298601A6070470120704700BFBC
:1034080010E000E000ED00E0044B1A6804280CBF4F
:1034180042F0040222F004021A60704710E000E053
:1034280008B5FFF749F908BD10B5044668B1037936
:1034380003F0FF0213B94271FFF796FC02232371D0
:10344800002001232061237110BD0120FCE743798E
:10345800012B10B54FF0020318D003710368012245
:103468001C6842718A4022431A6089B919681A682F
:103478004C0707D502F03802382A03D15A6842F0BF
:1034880001025A600123037100234371184610BDDD
:1034980019681A684903F5D502F46012B2F5601F7D
:1034A800F0D15A6842F00202EBE74379012B30B5BC
:1034B8004FF0020317D004680371236840F6FE75C5
:1034C800954023EA0505D1E900310B4393402B438E
:1034D80023602368C021914023EA0103236001236C
:1034E800037100234371184630BD13B500240068EA
:1034F8000194019041B90199083111440191019A4F
:103508000020136002B010BD01991431F5E70000E6
:10351800036810B5DAB2103A074C23F47F7323F02E
:1035280003035F2A88BF04331821B2FBF1F1615C01
:10353800C1658365184610BDF160010870B5044681
:10354800FFF7F6FC0546002C71D0002384F83430D0
:103558002268022384F83530136823F001031360CE
:1035680021680B68DA073BD40B68324DA0691D400F
:10357800D4E901231343E2681343226913436269C0
:103588001343E26903431343226A13432B43656AD7
:10359800042D02BFD4E90B26324313430B604A695A
:1035A800042D22F0070242EA05020BD1A36AE56A5C
:1035B8001A433DB1F8B9012B2ED00BB1022B01D122
:1035C800EB012CD44A612046FFF7A2FFE26D3F23AE
:1035D8009340836000200123606584F8353009E05A
:1035E800FFF7A6FC401B0528BAD9202363650320F2
:1035F80084F8350070BDB0F5005F14D1032BE1D815
:1036080001A050F823F000BF27360108C93501088A
:103618002736010821360108B5F1C07FD2D14023F1
:1036280063650120E4E7022BF9D9032BC7E70120E2
:10363800E0E700BF3F8010F038B50546F0B190F8DC
:103648003540E4B2022C17D003681A6822F0010250
:103658001A60002421221C605C609C60DC601C6194
:103668005A61FFF755FFEA6D3F23934083606C650D
:1036780085F8344085F83540204600E0012038BD03
:1036880070B590F83440866D012C35D0012480F84F
:10369800344090F83540012C4FF000054FF00204FB
:1036A80028D180F8354004684565256825F48025CB
:1036B800256063608368402B0EBFA260A160E26052
:1036C800C26D08BFE1603F239340B360236843F0B5
:1036D80016032360636943F080036361036C1BB1C5
:1036E800236843F008032360236843F00103236041
:1036F800002070BD80F834500220FAE7F7B50023A7
:1037080001935C4B856D1F68C36D2E6808229A4033
:10371800324204460CD001680868400708D508689A
:1037280020F004000860AA60626D42F00102626540
:10373800514A9A40324208D021684969090641BF76
:10374800AA60626D42F0020262654C4A9A403242B7
:1037580008D021680968880741BFAA60626D42F0F5
:103768000402626510229A40324210D02368196818
:1037780009070CD5AA601A68500337D51B681903C6
:1037880001D4236C00E0A36C0BB120469847E16D8F
:1037980020228A4032423AD023681868C60636D5B5
:1037A800AA6094F83520052A1A6827D122F0160253
:1037B8001A605A6922F080025A61226C0AB9A26C16
:1037C8001AB11A6822F008021A603F238B40AB60D6
:1037D800002384F83430012384F83530236D002B1E
:1037E80045D0204603B0BDE8F04018471A68D20516
:1037F8005EBF1A6822F008021A60C2E7500327D594
:103808001B68190331D4636C0BB120469847636D6C
:103818006BB3636DDA0719D50523226884F8353050
:10382800136823F0010313604FF41653B7FBF3F743
:10383800019B0133BB42019302D81368DB07F7D41D
:10384800002384F83430012384F83530E36CC6E76C
:103858001A6812F4807208D1196821F010011960F1
:10386800012384F8342084F83530E36BCCE703B0C7
:10387800F0BD00BF88000020010080000400800027
:10388800084910B50C6924F440740C610C6944F4BF
:1038980040740C610C6944F001040C6102604360DF
:1038A80010BD00BF003C0240074B1A6922F4407269
:1038B8001A611A6942F400721A611A6942F0010227
:1038C8001A610160704700BF003C0240074B1A694B
:1038D80022F440721A611A6942F480721A611A69F4
:1038E80042F001021A610180704700BF003C0240AB
:1038F8001A4BDA68D20606D51949CA6942F010028D
:10390800CA611022DA60DA68900606D51449CA69D5
:1039180042F00802CA612022DA60104BDA685106C8
:1039280006D50F49CA6942F00402CA614022DA602A
:10393800DA68120606D50A49CA6942F00202CA6163
:103948008022DA60054AD3689B0706D50449CB690B
:1039580043F02003CB610223D3607047003C024050
:1039680044600020064B1A69002ABFBF054A5A6006
:1039780002F188320020B4BF5A600120704700BFAE
:10398800003C024023016745F8B5124B124C002257
:103998000546DA61FFF7CCFA26460746E368DA03FC
:1039A8000CD4E368DB0744BF0123E360F06810F040
:1039B800F20007D0FFF79CFF012003E0691CEDD05F
:1039C8000DB90320F8BDFFF7B3FAC01BA842E5D92B
:1039D800F7E700BF44600020003C02402DE9F041B9
:1039E8001F4D98462B7E012B07460E46144635D0B0
:1039F80001234CF250302B76FFF7C6FFB0B9CFB990
:103A0800184B1A6922F440721A611A691A611A6904
:103A1800E4B242F001021A6134704CF25030FFF700
:103A2800B3FF104A136923F00103136100232B76B7
:103A3800BDE8F081012F04D1A1B23046FFF746FF5F
:103A4800EBE7022F04D121463046FFF72DFFE4E7CC
:103A5800224643463046FFF713FFDEE70220E7E73A
:103A680044600020003C0240074B1A6922F440726F
:103A78001A611A6942F004021A611A6942EA0020BE
:103A880040F4803018617047003C024039B1012988
:103A980021D002290CBF4FF400714FF440710F4B35
:103AA8001A6922F440721A611A69114319611A6974
:103AB80022F0F8021A61F82292FAA2F21969B2FA0F
:103AC80082F29040084340F0020018611A6942F4FB
:103AD80080321A6170474FF48071E0E7003C024081
:103AE800144B1A6891050FD51A6822F400721A60EF
:103AF8001A6842F400621A601A6822F400621A60B6
:103B08001A6842F400721A600A4B1A6852050FD5F7
:103B18001A6822F480621A601A6842F480521A60A5
:103B28001A6822F480521A601A6842F480621A6095
:103B3800704700BF003C02402DE9F843234E337E16
:103B4800012B044688463FD001234CF2503033768F
:103B5800FFF71AFF0546A8B94FF0FF33C8F8003041
:103B68002368012B13D1207CFFF77EFF4CF25030E5
:103B7800FFF70AFF164A136923F004030546136189
:103B8800FFF7AEFF002333762846BDE8F883A76821
:103B9800DFF83C90D4E902231344BB42F0D9217CDE
:103BA8003846FFF773FF4CF25030FFF7EDFED9F8B7
:103BB800103023F0FA03C9F8103018B1C8F80070B3
:103BC8000546DDE70137E5E70225DDE7446000202B
:103BD800003C02402DE9F04F85B00B68DFF8AC815E
:103BE800684ADFF8AC91019300234FF0010C019C67
:103BF8000CFA03FC04EA0C06B44540F0AE804C68AD
:103C080024F01007022F16D14FEAD30A00EB8A0AD4
:103C180003F0070BDAF820504FEA8B0B4FF00F0E2A
:103C28000EFA0BFE25EA0E0E0D6905FA0BF545EAAC
:103C38000E05CAF820504FEA430A0325D0F800B011
:103C480005FA0AF5ED4304F0030E05EA0B0B0EFA2C
:103C58000AFE013F4EEA0B0E012FC0F800E011D812
:103C6800876807EA050BCF6807FA0AFE4EEA0B07D2
:103C78008760476827EA0C0CC4F300179F4047EA9F
:103C88000C074760C7683D408F6807FA0AF73D434D
:103C9800C560E50061D54FF0000BCDF80CB0D8F841
:103CA8004470394D47F48047C8F84470D8F84470D8
:103CB80007F480470397039F23F0030707F1804722
:103CC80007F59C3703F0030ED7F808A04FEA8E0ECD
:103CD8004FF00F0C0CFA0EFCA8422AEA0C0C43D049
:103CE80005F58065A84241D005F58065A8423FD01A
:103CF80005F58065A8423DD005F58065A8423BD012
:103D080048453BD005F50065A84239D005F58065E2
:103D1800A8420CBF0725082505FA0EF545EA0C054B
:103D2800BD601568F74314F4803F0CBF3D40354330
:103D38001560556814F4003F0CBF3D40354355608D
:103D4800956814F4801F0CBF3D4035439560D568D5
:103D5800A40254BF3D403543D5600133102B7FF496
:103D680044AF05B0BDE8F08F5D46D5E70125D3E740
:103D78000225D1E70325CFE70425CDE70525CBE7C5
:103D88000625C9E7003C0140000002400038024017
:103D9800001402400AB1816170470904FBE7000082
:103DA8000368F7B50446D80732D4236899077FD447
:103DB80023681E0700F1CB8023685D0740F1198155
:103DC800002301938D4B8E4D1A6C42F080521A6479
:103DD8001B6C03F080530193019B2B6843F48073A1
:103DE8002B60FFF7A5F806462B68DA0540F1D1806D
:103DF800A368824D012B40F0D3802B6F43F0010361
:103E08002B67FFF795F87D4E074641F28835EDE0C0
:103E18007A4B9A6802F00C02042A07D09A6802F0DA
:103E28000C02082A0CD15A68520209D5734B1B6838
:103E38009B03BAD56368002BB7D1012003B0F0BD4E
:103E48006268B2F5803F11D11A6842F480321A6074
:103E5800FFF76EF8694D06462B689F03A5D4FFF758
:103E680067F8801B6428F7D90320E7E7634DB2F5AC
:103E7800A02F2B6807D143F480232B602B6843F4D1
:103E880080332B60E4E723F480332B602B6823F422
:103E980080232B60002ADBD1FFF74AF806462B68FF
:103EA800980382D5FFF744F8801B6428F7D9DBE72D
:103EB800524B9A6812F00C0F07D09A6802F00C0265
:103EC800082A16D15B68590213D44C4B1A6892071A
:103ED80002D5E268012AB0D11868F82292FAA2F253
:103EE800B2FA82F122698A4020F0F8010A431A6086
:103EF8005EE7E268434BDAB101221A60FFF718F86F
:103F08003E4D06462B689B070CD52968F82393FA83
:103F1800A3F3B3FA83F22369934021F0F802134321
:103F28002B6045E7FFF704F8801B0228EAD99BE7D6
:103F38001A60FEF7FDFF314D06462B689F077FF597
:103F480037AFFEF7F5FF801B0228F6D98CE76269C8
:103F58002D4B7AB101221A60FEF7EAFF274D06467B
:103F68006B6F98073FF528AFFEF7E2FF801B02282A
:103F7800F6D979E71A60FEF7DBFF204D06466B6F2E
:103F880099077FF519AFFEF7D3FF801B0228F6D9F2
:103F98006AE7FEF7CDFF801B02287FF625AF63E7AF
:103FA800052B04D12B6F43F004032B6725E72A6FF9
:103FB80022F001022A672A6F22F004022A67002BE6
:103FC8007FF41FAFFEF7B4FF41F2883706462B6F28
:103FD80098070ED5FEF7ACFF801BB842F7D943E728
:103FE800FEF7A6FFC01BA8423FF63EAF336F9B0704
:103FF800F6D5A26952B9002020E700BF0038024078
:104008000070004000004742800E47422A4DAB68CE
:1040180003F00C03082B3FF410AF284E0023022AAC
:1040280033603DD1FEF784FF07462B68990131D4F0
:1040380047F6C07797FAA7F74FF44032B7FA87F7F1
:1040480092FAA2F24FF07061B2FA82F091FAA1F1FD
:10405800D4E907321343626A02FA07F7A26A5208E0
:10406800013A82403B431343E26A134CB1FA81F1AF
:1040780002FA01F10B436B6001233360FEF758FF2E
:10408800054623689A01B6D4FEF752FF401B022862
:10409800F7D9E9E6FEF74CFFC01B0228C5D9E3E6CD
:1040A800FEF746FF04462B689B01A4D5FEF740FFA8
:1040B800001B0228F7D9D7E60038024060004742C3
:1040C800194A936803F00C03042B10B528D0082B69
:1040D80028D15168536801F03F0113F4800F47F667
:1040E800C074536894FAA4F0B0FA80F003EA0403A9
:1040F80023FA00F314BF0D480D48B0FBF1F0584304
:10410800094B4FF440325B6892FAA2F2B2FA82F29B
:1041180003F44033D34001335B00B0FBF3F010BD30
:104128000248FCE70248FAE70038024000127A0029
:104138000024F400554B1A6802F00F028A422DE958
:10414800F04105460E462FD32A68940736D4D00787
:104158003CD44E4B1A6802F00F02B24200F286803D
:104168002A68510700F18A80130707D5484A296948
:10417800936823F4604343EAC1039360FFF7A0FF09
:10418800434BF0229B6892FAA2F2B2FA82F203F051
:10419800F003D3403F4AD35CD8403F4B186000201F
:1041A800FEF790FE002007E0CAB21A701B6803F001
:1041B8000F038B42C8D00120BDE8F0813449A868BC
:1041C8008B6823F0F00303438B60C0E76A68304BC9
:1041D800012A1DD11B6813F4003FECD02C4CA368B6
:1041E80023F003031343A360FEF7A2FE6B68012BC1
:1041F800074641F2883815D1A36803F00C03042B55
:10420800A7D0FEF795FEC01B4045F5D90320D3E79C
:10421800911E01291B6802D813F0007FDDE713F017
:10422800020FDAE7022B0AD1A36803F00C03082B6C
:104238008FD0FEF77DFEC01B4045F5D9E6E7032B7E
:104248000FD1A36803F00C030C2B82D0FEF770FE8D
:10425800C01B4045F5D9D9E7FEF76AFEC01B4045AB
:10426800D4D8A36813F00C0FF6D172E7F2B21A7023
:104278001B6803F00F03B3429DD171E70449E86856
:104288008B6823F4E05303438B606DE7003C0240E6
:1042980000380240D960010888000020014B1868E6
:1042A800704700BF88000020084B4FF4E0529B681D
:1042B80092FAA2F2B2FA82F203F4E053D340044A2B
:1042C800D35C044A1068D840704700BF00380240E9
:1042D800E960010888000020084B4FF460429B68A1
:1042E80092FAA2F2B2FA82F203F46043D340044A8B
:1042F800D35C044A1068D840704700BF00380240B9
:10430800E96001088800002070470268022380F8ED
:104318003930136843F001031360012380F8393002
:10432800002070470368DA6842F00102DA601A6810
:1043380042F001021A60002070470368DA6822F030
:104348000102DA60196A41F21112114208D1196AA0
:1043580040F24442114202BF1A6822F001021A6078
:10436800002070472E4A0368904212D0B0F1804F67
:104378000FD0A2F57C4290420BD002F580629042A9
:1043880007D002F58062904203D002F5784290424D
:1043980019D14A6823F070031343214A904229D067
:1043A800B0F1804F26D0A2F57C42904222D002F58F
:1043B800806290421ED002F5806290421AD002F5C7
:1043C8007842904216D0174A904213D002F5806284
:1043D80090420FD002F5806290420BD0A2F598323D
:1043E800904207D002F58062904203D002F58062C5
:1043F800904203D1CA6823F44073134303608B6867
:10440800C3620B688362064B984203D003F580634E
:10441800984201D10B69036301234361704700BFD0
:10442800000001400040014010B50446A0B190F8DA
:10443800393003F0FF021BB980F83820FFF764FF1A
:10444800022384F839302068211DFFF78BFF0123F0
:1044580084F83930002010BD0120FCE790F838308E
:10446800012B10B54FF0020318D080F839300368DB
:104478000C685A68496822F070025A605A682243E8
:104488005A609A6822F080029A609A680A439A6091
:10449800012380F83930002380F83830184610BDE1
:1044A8000368DA6822F49072DA605A6922F001022D
:1044B8005A61202380F83A30704700002DE9F8430C
:1044C8000368C1681A69044622F440520A431A6113
:1044D8002569A268D968C0692A43656921F416412B
:1044E8002A4321F00C0102430A43DA605A69A169A0
:1044F80022F440720A43B0F5004F5A617A4A7BD1E0
:10450800934203D002F58062934244D1FFF7E4FE60
:10451800676819254FF0640805FB00F37F00B3FBBB
:10452800F7F3B3FBF8F31F01FFF7D6FE63686843A0
:104538005B00B0FBF3F6FFF7CFFE636868435B00F0
:10454800B0FBF3F3B3FBF8F308FB1363DB00323380
:10455800B3FBF8F35B0003F4F876FFF7BDFE62687F
:1045680068435200B0FBF2F9FFF7B6FE63682268B1
:1045780068435B00B0FBF3F3B3FBF8F308FB13935A
:10458800DB003233B3FBF8F303F007033B44334457
:104598009360BDE8F883FFF787FE676819254FF039
:1045A800640805FB00F37F00B3FBF7F3B3FBF8F3F4
:1045B8001F01FFF779FE636868435B00B0FBF3F601
:1045C800FFF772FE636868435B00B0FBF3F3B3FB6D
:1045D800F8F308FB1363DB003233B3FBF8F35B003B
:1045E80003F4F876FFF760FE626868435200B0FB98
:1045F800F2F9FFF759FEB9E7934202D03B4A9342DA
:1046080041D1FFF769FE676819254FF0640805FB7B
:1046180000F3BF00B3FBF7F3B3FBF8F31F01FFF799
:104628005BFE636868439B00B0FBF3F6FFF754FE3C
:10463800636868439B00B0FBF3F3B3FBF8F308FB34
:1046480013631B013233B3FBF8F303F0F006FFF7F3
:1046580043FE626868439200B0FBF2F9FFF73CFE44
:104668006368226868439B00B0FBF3F3B3FBF8F37D
:1046780008FB13931B013233B3FBF8F303F00F036A
:1046880033433B4484E7FFF70FFE676819254FF073
:10469800640805FB00F3BF00B3FBF7F3B3FBF8F3C3
:1046A8001F01FFF701FE636868439B00B0FBF3F648
:1046B800FFF7FAFD636868439B00B0FBF3F3B3FBB5
:1046C800F8F308FB13631B013233B3FBF8F303F071
:1046D800F006FFF7E9FD626868439200B0FBF2F963
:1046E800FFF7E2FDBCE700BF0010014000140140E5
:1046F800704710B5044640B390F8393003F0FF0214
:104708001BB980F83820FFF7F3FF2268242384F8C8
:104718003930D36823F40053D3602046FFF7CEFE28
:1047280023681A6922F490421A615A6922F02A020F
:104738005A61DA6842F40052DA6000202023E0630C
:1047480084F8393084F83A3010BD0120FCE70000C5
:1047580038B50446134694F83920202A2AD139B3AB
:1047680033B394F83820012A24D0012284F8382061
:104778000025206BE3842122E56384F839200E4A62
:10478800A3842162C2630D4A02640D4AC0E913255D
:1047980022680432FEF774FF23686FF040021A6043
:1047A8005A6984F8385042F080025A61284638BD68
:1047B8000120FCE70220FAE7CD470108FF4701087E
:1047C8000B4801080268126812F4807208B5836BFE
:1047D8000CD1DA841A68516921F080015161D168DD
:1047E80041F04001D160202283F839201846FEF7B5
:1047F80019F908BD704708B5806BFFF7FBFF08BDC6
:104808007047816B08B50B685A6991F839002128FF
:104818000AD1120608D50022CA84DA6822F0C0023A
:10482800DA60202281F839205B6991F83A20222A3F
:1048380006D15B0604D50023CB850846FFF730FE7A
:10484800CB6B43F01003CB630846FFF7D9FF08BDD5
:10485800014B1868704700BF8C00002070B50D4DE3
:104868000D4C641BA4100026A64209D10B4D0C4C1C
:1048780001F032FD641BA4100026A64205D170BDCC
:1048880055F8043B98470136EEE755F8043B98473E
:104898000136F2E7F8620108F8620108F8620108D7
:1048A800FC6201080A44914200F1FF3300D17047CD
:1048B80010B511F8014B03F8014F9142F9D110BD21
:1048C80000B551EC100B2C4A21F00043934285B0FF
:1048D80027DD2A4A934209DD10EE102A0B46FBF722
:1048E80073FC41EC100B05B05DF804FB684600F062
:1048F800A7F800F0030001281FD0022830D028B301
:104908009DED021B9DED000B00F07EFB53EC102B80
:1049180010EE100A03F1004141EC100B05B05DF8F0
:1049280004FB00209FED121B01F0CAF851EC100B9C
:1049380041EC100B05B05DF804FB9DED021B9DEDED
:10494800000B00F061FB51EC100BCAE701209DED54
:10495800021B9DED000B01F0B3F851EC100BC0E702
:1049680001209DED021B9DED000B01F0A9F8CDE79C
:104978000000000000000000FB21E93FFFFFEF7F7F
:104988002DE9F0432DED028B8BB055EC104B00F068
:104998006DFA284BB0EE408AF0EE608A93F9006019
:1049A800731C12D022462B4620462946FCF7CEF827
:1049B800074650B94FF000084FF000092046294635
:1049C80042464B46FCF79AF840B9B0EE480AF0EE7A
:1049D800680A0BB0BDEC028BBDE8F0830122164BD0
:1049E80008970092CDE90445CDE90245019396B1B7
:1049F80042464B4640464946FBF7C8FE022ECDE9E3
:104A080006010AD1FFF724FF21230360089B63B93D
:104A18009DED068BD9E7CDE90689684601F0A8F92E
:104A28000028EFD0089B002BF2D0FFF711FF089B5E
:104A38000360EDE7F0000020FC60010800000000C2
:104A48002DE9F04F53EC102B974923F000458D4288
:104A58008FB040F3878095498D421E46044629DC75
:104A6800002E194610EE100A85A3D3E9002340F35F
:104A7800AA81FBF7A9FB8E4B9D4206460F4600F024
:104A8800878081A3D3E90023FBF79EFB02460B46F0
:104A9800C4E9002339463046FBF796FB7AA3D3E9ED
:104AA8000023FBF791FBC4E90201012738460FB048
:104AB800BDE8F08F7F498D4240F38A807E498D4260
:104AC8005BDC2F15A7F2164710EE100AA5EB07516D
:104AD80090468946FCF750F8FBF7C4FC82468B46A3
:104AE8004046494652465B46CDE908ABFBF76CFBAE
:104AF8000022724BFBF720FD89468046FCF73CF804
:104B08000546FBF7AFFC02460B4640464946CDE951
:104B18000A23FBF759FB0022684BFBF70DFD002227
:104B28000023CDE90C01FBF7DFFF002800F04981E5
:104B3800002D0CBF01230223614A019202213A464B
:104B4800009108A8214600F0A3FB002E0746ADDA25
:104B58006268E36802F1004203F100434742626081
:104B6800E360A3E700240025002780ED000BC0E9DF
:104B7800024538460FB0BDE8F08F10EE100A19460E
:104B8800FBF722FB0027C4E90201C4E900018DE715
:104B98003FA3D3E90023FBF717FB3FA3D3E9002387
:104BA80006460F46FBF710FB02460B46C4E90023F6
:104BB80030463946FBF708FB37A3D3E90023FBF758
:104BC80003FB0127C4E9020138460FB0BDE8F08FA6
:104BD80001F040F859EC108B10EE100A30A3D3E91D
:104BE80000234946FBF7A8FC0022364BFBF7EEFAF8
:104BF800FBF7C2FF0746FBF735FC21A3D3E90023E7
:104C0800CDE90401FBF798FC02460B4640464946AD
:104C1800FBF7DAFA1CA3D3E9002382468B46DDE9C9
:104C28000401FBF789FC1F2FCDE902014EDC024687
:104C38000B4650465946FBF7C7FA234B7A1E804667
:104C480053F82230AB42894648D042464B46C4E925
:104C5800008950465946FBF7B7FADDE90223FBF70E
:104C6800B3FA002EC4E90201BFF620AF09F10045EE
:104C780001F100437F42C4E90085C4E9020315E756
:104C880000004054FB21F93F3163621A61B4D03D02
:104C98000000601A61B4D03D7370032E8A19A33BDB
:104CA80083C8C96D305FE43FFB21E93F7BD90240EF
:104CB800FB21F93FFB213941FFFFEF7F00007041E5
:104CC800846101080000E03F04610108DDE9022376
:104CD80050465946FBF778FA804689462D15C9F3A0
:104CE8000A53EB1A102BB0DD57A3D3E90023DDE9F3
:104CF8000401FBF721FC8046894602460B465046D4
:104D08005946FBF761FA02460B4650465946CDE92B
:104D18000623FBF759FA42464B46FBF755FA4CA3D4
:104D2800D3E9002380468946DDE90401FBF704FC4A
:104D380042464B46FBF748FADDE906ABCDE90201EE
:104D48000B46024659465046FBF73EFAC1F30A5352
:104D5800ED1A312D804689467FF777AF3FA3D3E917
:104D68000023DDE90401FBF7E7FB8046894602469C
:104D78000B46DDE90601FBF727FA02460B46824699
:104D88008B46DDE90601FBF71FFA42464B46FBF767
:104D98001BFA34A3D3E9002380468946DDE90401E0
:104DA800FBF7CAFB42464B46FBF70EFA02460B4698
:104DB80050465946CDE90223FBF706FA8046894654
:104DC80043E70323B8E6FBF701FA234B9D42064667
:104DD8000F4616D01AA3D3E90023FBF7F7F90246CA
:104DE8000B46C4E9002339463046FBF7EDF914A316
:104DF800D3E90023FBF7EAF94FF0FF37C4E90201D2
:104E080054E611A3D3E90023FBF7E0F910A3D3E993
:104E180000230F460646FBF7D9F902460B46C4E9BC
:104E2800002339463046FBF7CFF909A3D3E900231D
:104E3800FBF7CCF94FF0FF37C4E9020136E600BFB3
:104E48003163621A61B4D03D0000601A61B4D03D8C
:104E58007370032E8A19A33BFB21F93F0000002E33
:104E68008A19A33BC14920259A837B392DE9F04152
:104E7800634A55EC104BAA4300F09D80002D2B4649
:104E880010EE101A53DD5FEA255C00F0B180C3F321
:104E98001303ACF2FF3CCA0F43F480131CF0010F5C
:104EA80002EB43034FEA410203D0D20F02EB430364
:104EB8008A0000274FEA6C0C384616214FF400147C
:104EC80005199D4202DC5B1B281927445B00013948
:104ED80003EBD2734FEA54044FEA4202F0D10D4675
:104EE8008E4620264FF0004109E042D0D40F013E03
:104EF8004FEA510104EB43034FEA420242D0834296
:104F080001EB0E04F1DD002C04EB010E09DB8046F9
:104F18001B1A944288BF03F1FF33121B0D4440460D
:104F2800E4E7BEF1000FF2DB00F10108F0E725F03D
:104F38000042224337D0002D4DD1CC0A153B4905FC
:104F48002246002CF9D0E50255D4002000E028467E
:104F58005200D40200F10105F9D514460A46A940C9
:104F6800C5F1200522FA05F5A3EB000C45EA040378
:104F78008DE79442BAD8002C04EB010ED1DB984699
:104F88000023CAE7134310D16E087910FB0701F11B
:104F98007F5101F5001148BF46F0004601EB0C5364
:104FA800324643EC102BBDE8F0816A1C16BF691C21
:104FB80001374E08E9E710EE102A2B4610EE100ACA
:104FC8002946FBF7B9FA22462B46FBF7FFF841ECD6
:104FD800100BBDE8F08110EE102A20462946FBF799
:104FE800F3F802460B46FBF7D1FB41EC100BDAE76E
:104FF8002A466346A9E70A4620254FF0FF30B1E765
:105008000000F07F000000002DE9F04F57EC106B16
:105018002DED028BB0EE418AF0EE618A27F000494F
:10502800B9F1795F83B072DA10EE100A3946FBF7EE
:10503800A3FD002800F0F68032463B46304639464C
:10504800FBF77AFA7CA3D3E9002304460D46FBF765
:1050580073FA7BA3D3E90023FBF7B8F822462B4663
:10506800FBF76AFA78A3D3E90023FBF7ADF82246E9
:105078002B46FBF761FA76A3D3E90023FBF7A6F8E2
:1050880022462B46FBF758FA73A3D3E90023FBF714
:105098009BF822462B46FBF74FFA71A3D3E900236E
:1050A800FBF794F822462B46FBF746FA82468B46D6
:1050B8000022714B20462946FBF73EFA52468046AD
:1050C80089465B4620462946FBF736FA53EC182BEF
:1050D80004460D4630463946FBF72EFA02460B4683
:1050E80020462946FBF770F802460B4640464946DB
:1050F800FBF76AF802460B4600206049FBF764F8A4
:1051080041EC100B03B0BDEC028BBDE8F08F10EE44
:10511800102A10EE100A3B463946FBF70DFA46A353
:10512800D3E9002304460D46FBF706FA44A3D3E966
:105138000023FBF74BF822462B46FBF7FDF942A369
:10514800D3E90023FBF740F822462B46FBF7F4F996
:105158003FA3D3E90023FBF739F822462B46FBF798
:10516800EBF93DA3D3E90023FBF72EF822462B46A3
:10517800FBF7E2F93AA3D3E90023FBF727F82B461C
:105188002246FBF7D9F93E4B994582468B468FDD7F
:105198003C4B99453DDC0022A9F500130020374916
:1051A80090469946FBF710F8CDE900010022324BF2
:1051B80020462946FBF7C0F942464B46FBF704F860
:1051C8005246804689465B4620462946FBF7B4F995
:1051D80053EC182B04460D4630463946FBF7ACF91C
:1051E80002460B4620462946FAF7EEFF02460B46D2
:1051F80040464946FAF7E8FF02460B46DDE900015A
:10520800FAF7E2FF41EC100B03B0BDEC028BBDE8EE
:10521800F08F9FED157B4FF000088DED007BDFF8D8
:105228006890C3E79FED120B03B0BDEC028BBDE89D
:10523800F08F00BFAFF30080D43888BEE9FAA8BD6C
:10524800C4B1B4BD9EEE213EAD529C804F7E923ECD
:105258009015CB19A001FA3E7751C1166CC1563F83
:105268004C5555555555A53F000000000000E73F37
:10527800000000000000F03F0000E03F0000F03FA9
:105288003233D33F0000E93F0000D23F0000000066
:105298002DE9F04FADF5197DB94CA29D089354F84E
:1052A80025400594013B12F1140F04900B910393D0
:1052B800C0F2B282B349D31E81FB0301DB17C3EBF3
:1052C800A10307930133A3EB8303DB00D3180693F1
:1052D800079A039BD61A059A12EB03081AD408F109
:1052E800010800240025B04420AFDDF88C9208E0C6
:1052F80059F82600FBF7B6F801364645E7E80201FB
:1053080008D0002EF4DA0136204629464645E7E85B
:105318000201F6D1059B002B089B4FEAC3030193BA
:105328002ADB049A20A902EB030801EB030A059B78
:1053380072AA02EBC30B0DF5E079039B002B4FF02B
:1053480000064FF0000711DB049C554675E902235F
:10535800F4E80201FBF7F0F802460B4630463946FE
:10536800FAF734FF444506460F46EFD1E9E80267ED
:10537800D9450AF1080AE0D10198049C05990191E0
:1053880020448B0083460BA8A3F10802C3180A9394
:105398000CAB13440993019A98A901EBC203002AA4
:1053A80053E9284529DD0DF5E07A0AEBC2080DF12D
:1053B80030090022744B20462946FBF7BDF8FBF75D
:1053C800DBFBFBF74FF80022704B06460F46FBF756
:1053D800B3F802460B4620462946FAF7F5FEFBF7D6
:1053E800CBFB78E9022349F8040B39463046FAF733
:1053F800EDFED04504460D46DBD1DDF8189045ECAE
:10540800104B484600F0B8FC55EC104B00224FF00A
:105418007F5310EE100A2946FBF78EF841EC100B6B
:1054280000F022FC002251EC100B594BFBF784F8DA
:1054380002460B4620462946FAF7C6FE0D460446A4
:10544800FBF79AFB8046FBF70DF80B460246294608
:105458002046FAF7B9FE4B46002B06460F4640F3A6
:105468009980019A0CA9013AC9F1180351F8225000
:1054780045FA03F101FA03F3EB1AC9F117050CA871
:1054880043FA05F5002D40F82230884400F38C805B
:105498000022002330463946FBF726FB002800F09F
:1054A8009282019B059A03F1FF394A4510DC03F10A
:1054B80080430CAA013B0A9802EB8303002253F8AD
:1054C8000419834242EA0102F9D1002A40F0DB8044
:1054D800059B0CAA013B52F82330002B40F0CE80EC
:1054E800099A012352F8041901330029FAD00199C5
:1054F8004A1CCB1802939146079B089902EB030AB2
:10550800019B0B441D4620AB0AF1804A03EBC505FD
:10551800A39B0AF1FF3A03EB8A0A70AB03EBC203C1
:1055280001935AF8040FFAF79DFF0B4603990246B8
:10553800A8460029E8E802234FF000064FF00007CC
:1055480011DB049C01E075E90223F4E80201FAF793
:10555800F3FF02460B4630463946FAF737FE5C45FC
:1055680006460F46EFD1019BE3E802670193029BD1
:1055780009F1010999454546D3DD01930BE700BFC1
:10558800D0620108ABAAAA2A0000703E0000704150
:105598000000204069D1019B0CAA013B52F823501E
:1055A800ED15002D7FF774AF019B002B08F1010862
:1055B80040F307820C9C002C3AD1019B012B09D0A7
:1055C8000CA9012251F8044F531C9CBB1A46019B9D
:1055D8009342F7D1069B002B0EDD012B00F01181C1
:1055E800022B09D1019B5A1E0CAB0CA953F822308F
:1055F800C3F3150341F82230022D7FF449AF324638
:105608003B4600209449FAF7DFFD06460F46002C7A
:105618003FF43EAF06989FED8C0B00F0ADFB304693
:10562800394653EC102BFAF7CFFD06460F462FE705
:10563800012300220CA9C4F1807441F82240019989
:10564800994210DD0CAA0CA852F8232000EB830322
:1056580000EB81006FF07F4100E01A688A1A43F876
:10566800042B8342F9D10124B4E700227B4BFBF7DA
:1056780059FA002840F0D580054609E7019B5A1CD5
:105688009146029238E70CAB069A53F82930CDF8C8
:105698001C80183A0495069273B9019B03F1804364
:1056A800023B0CA901EB830353F8041909F1FF39F4
:1056B800183A0029F8D0069206989FED630B00F07F
:1056C8005BFBB9F1000F55EC104BC0F2DD814FEADE
:1056D800C90370AA02EB0308069309F101060CAB93
:1056E800DFF87CB14FF0000A08F1080703EB8606E3
:1056F80056F8040DFAF7B6FE22462B46FAF71CFFB9
:105708005B4667E90201524620462946FAF714FF2C
:105718000CAB9E4204460D46EAD1CDF80890DDF860
:10572800149048ABB9F1000F0393C34601934FF0AF
:10573800000A2BDBDFF82C815D4645A3D3E9002363
:1057480000260027002403E0544510DCF8E8022373
:10575800F5E80201FAF7F0FE02460B4630463946F4
:10576800FAF734FD0134A14506460F46ECDA019BF1
:10577800029AE3E8026792450193ABF1080B0AF13C
:10578800010306D0B9F1000F9A46D3DA00260027A4
:10579800EDE7A29BDDF80890032B2BD8DFE813F088
:1057A800F600E500E500660048AB002400250393F9
:1057B80003992B462246D1E90001FAF705FD049B1F
:1057C800002B40F040810B9BB9F1000FC3E9004565
:1057D8000DDD4AAD01240134F5E80223FAF7F6FCA1
:1057E800A145F8DA049B13B101F1004319460B9B5C
:1057F800C3E90201079B03F007000DF5197DBDE819
:10580800F08F019B5A1E0CAB0CA953F82230C3F33E
:10581800160341F82230EFE600216FF017030791D5
:1058280054E5019B002B08F10108C8BF02253FF78A
:10583800C1AE32463B4600200749FAF7C5FC0225AF
:1058480006460F4624E600BF000000000000F03FB7
:1058580000000040FB21F93F0000F03F0000E03F5E
:105868000000703E9862010848AB0393B9F1000F3D
:1058780040F31D81039A4FEAC9030193D318D3E972
:1058880000AB984678E9026752465B46304639468F
:10589800FAF79CFC04460D4602460B46304639464C
:1058A800FAF792FC5B465246FAF790FC039B434595
:1058B800A246AB46C8E90201C8E90045E2D1B9F100
:1058C800010F40F3F480019B039A09F1005909F193
:1058D800FF3913444FEAC901D3E9006701F1080A07
:1058E800019192440DF5947B7AE9028932463B4650
:1058F80040464946FAF76AFC04460D4602460B46FE
:1059080040464946FAF760FC32463B46FAF75EFCE9
:10591800D34526462F46CAE90201CAE90045E3D124
:10592800019C039B1034002000211C4403F1100546
:1059380074E90223FAF74AFCA542F9D1039C049EB4
:10594800D4E90023D4E90245002E40F087800B9E5D
:10595800C6E90023079BC6E9040103F00700C6E96E
:1059680002450DF5197DBDE8F08F069E039F0836A8
:10597800002400253E4476E9022320462946FAF70A
:1059880025FCB74204460D46F5D111E7069C039D58
:105998000834002000212C4474E90223FAF716FC8D
:1059A800A542F9D1049B13B101F1004319460B9BA1
:1059B800C3E90001079B03F007000DF5197DBDE859
:1059C800F08F002406E6069B0495584247EC106BBE
:1059D800CDF81C8000F0D0F955EC104B0022354B67
:1059E80010EE100A2946FBF79DF810B30022324B3F
:1059F80020462946FAF7A0FDFBF7BEF80646FAF757
:105A080031FD00222B4BFAF797FD02460B46204644
:105A18002946FAF7D9FBFBF7AFF8069B019A18332A
:105A280002F1010906930CAB43F8220043F8296000
:105A380042E620462946FBF79FF8019B0CAA9946A7
:105A480042F8230038E622460B9C05F10043B9F1E1
:105A5800000FC4E900233FF7BCAEC5E603F10047D9
:105A680001F100430B99C1E90403079B26469446BC
:105A780005F1004403F00700C1E900C7C1E9026469
:105A88000DF5197DBDE8F08FA29B032B3FF6B2AE52
:105A980001A252F823F000BFB15A0108B15701081A
:105AA800B157010871580108002000217AE7002049
:105AB800002143E7000070410000703E0000000034
:105AC8002DE9F04F55EC104B2DED028BB0EE418ACD
