:020000040801F1
:2000000000000220C9010108A5060108A7060108A9060108AB060108AD0601080000000053
:20002000000000000000000000000000AF060108B106010800000000B3060108B5060108BC
:200040002D0201082D0201082D0201082D0201082D0201082D0201082D0201082D020108E0
:200060002D0201082D0201082D0201082D0201082D0201082D0201082D020108E906010800
:20008000C5060108D10601082D0201082D0201082D0201082D0201082D0201082D0201085C
:2000A0002D0201082D0201082D0201082D0201082D0201082D0201082D0201082D02010880
:2000C0002D0201082D0201082D0201082D0201082D0201082D0201082D020108F506010894
:2000E0002D0201082D0201082D0201082D0201082D0201082D0201082D0201082D02010840
:200100002D0201082D0201089D0401082D0201082D0201082D0201082D020108CD0201080D
:20012000DD0601082D0201082D0201082D0201082D02010800000000000000002D020108BB
:200140002D0201082D0201082D0201082D0201082D0201082D0201082D0201082D020108DF
:200160002D0201082D0201082D0201082D0201082D0201082D02010800000000000000002F
:200180002D0201082D02010810B5054C237833B9044B13B10448AFF300800123237010BD4D
:2001A00008000020000000003413010808B5034B1BB103490348AFF3008008BD0000000072
:2001C0000C00002034130108DFF840D0104811490860004200BF002103E00F4B5B584350FD
:2001E00004310E480E4B42189A42F6D30D4A02E0002342F8043B0C4B9A42F9D300F084FADA
:2002000001F06CF800F008F970470000000002200000010808ED00E0541301080000002051
:200220000800002008000020505A0020FEE7000000224021014800F021BD00BF000802401C
:200240000D4B1B68DA6860B142F02002DA60DA6851B142F08002DA60DA6842F04002DA60C0
:20026000704722F02002F1E722F08002DA60DA6822F04002F3E700BF7C59002070B5104C48
:2002800023681D68A90602D50E4B1B6898476A0609D523686FF040021A60FFF7C9FF00213A
:2002A0000120FFF7CDFF2B0608D523686FF080021A60054BBDE870401B68184770BD00BFF4
:2002C0007C5900201C01002014010020074B1B681A69D10708D5DA68D20705D56FF0010253
:2002E0001A61034B1B681847704700BFD80000201801002010B594B00021284B01911A6CF7
:2003000042F080521A641B6C03F080530193019B234B02911A6842F480421A601B6803F46F
:2003200080430293029B01214FF480330224CDE908134FF480030820CDE90E434FF4A87366
:20034000CDE91003072308A81294139300F0A0FC00B1FEE70F23CDE9033405904FF4A052A3
:200360004FF48053052103A8CDE9062300F05AFE044600B1FEE700F009FF4FF47A73B0FBBC
:20038000F3F000F075FA042000F088FA224621464FF0FF3000F038FA14B010BD003802401B
:2003A0000070004086B01B4B00220192196B41F080011963196B01F08001019101990292D4
:2003C000196B41F004011963196B01F00401029102990392196B41F001011963196B01F002
:2003E0000101039103990492196B41F002011963196B01F002010491049905921A6B42F009
:2004000010021A631B6B03F010030593059B06B0704700BF003802407FB500F0ABF90124F6
:20042000FFF768FFFFF7BEFF4FF44043CDE9013401A900231248039300F040FB00BF4FF411
:20044000804122460E4800F019FC22464FF400410B4800F013FC62B6094C4FF4FA7000F0D0
:20046000B1F94FF40041204600F00DFC4FF4FA7000F0A8F94FF48041204600F004FCECE784
:200480000010024070470000034B1A68D36843F04003D360704700BF7C59002037B52C48D4
:2004A0002C4C03686FF001021A612378012B0DD1294A13680133B3F5FC5F136004D300BFA9
:2004C00000F06AFE0523237003B030BD2378022B05D11F4803B0BDE8304000F05DBE2378F6
:2004E000052BF6D01D4A1E4913680868013313601C4A92F90020013A934210D10122402120
:20050000194800F0BBFB142300BF013BFCD117491748032203B0BDE8304000F05FBE082BE9
:20052000D2D1830642BF4B68DBB28DF80730104B1B68DA6842F02002DA60DA6842F020024E
:20054000DA6001232370044B00221A60BCE700BF980000202C0000202800002030000020C1
:20056000004800400100002000080240340000207C5900202C4B73B51D68A90615D55B68BF
:20058000DBB28DF80730294B1A78012A0DD1284C2268032A09D8DFE802F00221292F9DF82E
:2005A0000730532B01D1012323606A060ED51E4B20486FF040021A604021002200F05EFB02
:2005C0001D4B1A68D36823F04003D3602B0642BF154B6FF080021A6002B070BD9DF80730D5
:2005E000742B01D10223DFE70023DDE79DF80730612BF9D10323D7E79DF80720722AF3D196
:200600000E4A0F4E012111600B4A1168CA6822F02002CA60304602221A7000F0BDFD3268CC
:2006200000235362C0E700BF004800402C000020D4000020000802407C5900202400002031
:200640009800002008B5032000F0CCF8002211466FF00B0000F0D8F8002211466FF00A00C9
:2006600000F0D2F8002211466FF0090000F0CCF8002211466FF0040000F0C6F80022114628
:200680006FF0030000F0C0F8002211466FF0010000F0BAF8002211464FF0FF30BDE8084001
:2006A00000F0B2B87047FEE7FEE7FEE7FEE770477047704708B500F077F8BDE8084000F077
:2006C000F9B80000014B986800F036B9901D0020014BD86800F030B9901D0020014B986BF0
:2006E00000F02AB9481D0020014B186B00F024B97C590020034B1B78012B01D1FFF7BEBDC1
:20070000FFF738BF000000200D4AD2F8883043F47003C2F888300B4B1A68002142F00102A9
:200720001A6099601A6822F0847222F480321A60054A5A601A6822F480221A60D9607047CD
:2007400000ED00E0003802401030002410B5084B044618684FF47A73B0FBF3F000F088F8DE
:20076000002221464FF0FF3000F04EF8002010BD0400002008B50B4B1A6842F400721A6084
:200780001A6842F480621A601A6842F480721A60032000F027F80020FFF7D8FFFFF752FFBB
:2007A000002008BD003C0240024A136801331360704700BF4C5A0020014B1868704700BFEA
:2007C0004C5A002037B50190FFF7F6FF019C631C054618BF0134FFF7EFFF401BA042FAD38A
:2007E00003B030BD074AD36823F4E06300021B0400F4E0601B0C184340F0BF6040F40030E9
:20080000D060704700ED00E0174B70B5DC68C4F30224C4F10705042D04F1040328BF04257E
:200820004FF0FF36062B06FA05F58CBF033C002421EA0501A14006FA04F422EA0403002846
:2008400043EA0103A8BF00F160404FEA0313BCBF00F00F00054ADBB2AABF00F56140135464
:2008600080F8003370BD00BF00ED00E014ED00E00138B0F1807F0AD2064B074A5860F02113
:2008800082F823100020072298601A6070470120704700BF10E000E000ED00E0044B1A6834
:2008A00004280CBF42F0040222F004021A60704710E000E008B5FFF7E5FD08BD70B590F8E9
:2008C0003440866D012C35D0012480F8344090F83540012C4FF000054FF0020428D180F84A
:2008E000354004684565256825F48025256063608368402B0EBFA260A160E260C26D08BF7C
:20090000E1603F239340B360236843F016032360636943F080036361036C1BB1236843F0B5
:2009200008032360236843F001032360002070BD80F834500220FAE7F7B5002301935C4B8E
:20094000856D1F68C36D2E6808229A40324204460CD001680868400708D5086820F0040039
:200960000860AA60626D42F001026265514A9A40324208D021684969090641BFAA60626D56
:2009800042F0020262654C4A9A40324208D021680968880741BFAA60626D42F0040262653D
:2009A00010229A40324210D02368196809070CD5AA601A68500337D51B68190301D4236CEC
:2009C00000E0A36C0BB120469847E16D20228A4032423AD023681868C60636D5AA6094F8D7
:2009E0003520052A1A6827D122F016021A605A6922F080025A61226C0AB9A26C1AB11A6897
:200A000022F008021A603F238B40AB60002384F83430012384F83530236D002B45D02046CA
:200A200003B0BDE8F04018471A68D2055EBF1A6822F008021A60C2E7500327D51B681903AA
:200A400031D4636C0BB120469847636D6BB3636DDA0719D50523226884F83530136823F013
:200A6000010313604FF41653B7FBF3F7019B0133BB42019302D81368DB07F7D4002384F8B5
:200A80003430012384F83530E36CC6E71A6812F4807208D1196821F010011960012384F8E2
:200AA000342084F83530E36BCCE703B0F0BD00BF0400002001008000040080002DE9F04F63
:200AC00085B00B68DFF8AC81684ADFF8AC91019300234FF0010C019C0CFA03FC04EA0C06FF
:200AE000B44540F0AE804C6824F01007022F16D14FEAD30A00EB8A0A03F0070BDAF82050CC
:200B00004FEA8B0B4FF00F0E0EFA0BFE25EA0E0E0D6905FA0BF545EA0E05CAF820504FEA4C
:200B2000430A0325D0F800B005FA0AF5ED4304F0030E05EA0B0B0EFA0AFE013F4EEA0B0EEF
:200B4000012FC0F800E011D8876807EA050BCF6807FA0AFE4EEA0B078760476827EA0C0CAB
:200B6000C4F300179F4047EA0C074760C7683D408F6807FA0AF73D43C560E50061D54FF039
:200B8000000BCDF80CB0D8F84470394D47F48047C8F84470D8F8447007F480470397039FC7
:200BA00023F0030707F1804707F59C3703F0030ED7F808A04FEA8E0E4FF00F0C0CFA0EFCD0
:200BC000A8422AEA0C0C43D005F58065A84241D005F58065A8423FD005F58065A8423DD064
:200BE00005F58065A8423BD048453BD005F50065A84239D005F58065A8420CBF072508254A
:200C000005FA0EF545EA0C05BD601568F74314F4803F0CBF3D4035431560556814F4003FBE
:200C20000CBF3D4035435560956814F4801F0CBF3D4035439560D568A40254BF3D403543FB
:200C4000D5600133102B7FF444AF05B0BDE8F08F5D46D5E70125D3E70225D1E70325CFE7B5
:200C60000425CDE70525CBE70625C9E7003C01400000024000380240001402400AB18161B4
:200C800070470904FBE7436959404161704700000368F7B50446D80732D4236899077FD44C
:200CA00023681E0700F1CB8023685D0740F11981002301938D4B8E4D1A6C42F080521A641C
:200CC0001B6C03F080530193019B2B6843F480732B60FFF771FD06462B68DA0540F1D180AB
:200CE000A368824D012B40F0D3802B6F43F001032B67FFF761FD7D4E074641F28835EDE0DF
:200D00007A4B9A6802F00C02042A07D09A6802F00C02082A0CD15A68520209D5734B1B68C1
:200D20009B03BAD56368002BB7D1012003B0F0BD6268B2F5803F11D11A6842F480321A6091
:200D4000FFF73AFD694D06462B689F03A5D4FFF733FD801B6428F7D90320E7E7634DB2F551
:200D6000A02F2B6807D143F480232B602B6843F480332B60E4E723F480332B602B6823F402
:200D800080232B60002ADBD1FFF716FD06462B68980382D5FFF710FD801B6428F7D9DBE7B9
:200DA000524B9A6812F00C0F07D09A6802F00C02082A16D15B68590213D44C4B1A689207CE
:200DC00002D5E268012AB0D11868F82292FAA2F2B2FA82F122698A4020F0F8010A431A6048
:200DE0005EE7E268434BDAB101221A60FFF7E4FC3E4D06462B689B070CD52968F82393FAB2
:200E0000A3F3B3FA83F22369934021F0F80213432B6045E7FFF7D0FC801B0228EAD99BE7D7
:200E20001A60FFF7C9FC314D06462B689F077FF537AFFFF7C1FC801B0228F6D98CE762699B
:200E40002D4B7AB101221A60FFF7B6FC274D06466B6F98073FF528AFFFF7AEFC801B022801
:200E6000F6D979E71A60FFF7A7FC204D06466B6F99077FF519AFFFF79FFC801B0228F6D99C
:200E80006AE7FFF799FC801B02287FF625AF63E7052B04D12B6F43F004032B6725E72A6F0E
:200EA00022F001022A672A6F22F004022A67002B7FF41FAFFFF780FC41F2883706462B6F94
:200EC00098070ED5FFF778FC801BB842F7D943E7FFF772FCC01BA8423FF63EAF336F9B0708
:200EE000F6D5A26952B9002020E700BF003802400070004000004742800E47422A4DAB68D7
:200F000003F00C03082B3FF410AF284E0023022A33603DD1FFF750FC07462B68990131D483
:200F200047F6C07797FAA7F74FF44032B7FA87F792FAA2F24FF07061B2FA82F091FAA1F1BF
:200F4000D4E907321343626A02FA07F7A26A5208013A82403B431343E26A134CB1FA81F180
:200F600002FA01F10B436B6001233360FFF724FC054623689A01B6D4FFF71EFC401B02280D
:200F8000F7D9E9E6FFF718FCC01B0228C5D9E3E6FFF712FC04462B689B01A4D5FFF70CFC48
:200FA000001B0228F7D9D7E60038024060004742194A936803F00C03042B10B528D0082B7D
:200FC00028D15168536801F03F0113F4800F47F6C074536894FAA4F0B0FA80F003EA040381
:200FE00023FA00F314BF0D480D48B0FBF1F05843094B4FF440325B6892FAA2F2B2FA82F231
:2010000003F44033D34001335B00B0FBF3F010BD0248FCE70248FAE70038024000127A000B
:201020000024F400554B1A6802F00F028A422DE9F04105460E462FD32A68940736D4D007B1
:201040003CD44E4B1A6802F00F02B24200F286802A68510700F18A80130707D5484A296977
:20106000936823F4604343EAC1039360FFF7A0FF434BF0229B6892FAA2F2B2FA82F203F06C
:20108000F003D3403F4AD35CD8403F4B18600020FFF75CFB002007E0CAB21A701B6803F088
:2010A0000F038B42C8D00120BDE8F0813449A8688B6823F0F00303438B60C0E76A68304BD7
:2010C000012A1DD11B6813F4003FECD02C4CA36823F003031343A360FFF76EFB6B68012B1F
:2010E000074641F2883815D1A36803F00C03042BA7D0FFF761FBC01B4045F5D90320D3E7BA
:20110000911E01291B6802D813F0007FDDE713F0020FDAE7022B0AD1A36803F00C03082B36
:201120008FD0FFF749FBC01B4045F5D9E6E7032B0FD1A36803F00C030C2B82D0FFF73CFB4A
:20114000C01B4045F5D9D9E7FFF736FBC01B4045D4D8A36813F00C0FF6D172E7F2B21A70F7
:201160001B6803F00F03B3429DD171E70449E8688B6823F4E05303438B606DE7003C02404F
:20118000003802402413010804000020014B1868704700BF040000200368DA6822F0010249
:2011A000DA60196A41F21112114208D1196A40F24442114202BF1A6822F001021A60002070
:2011C00070470368DA6822F49072DA605A6922F001025A61202380F83A30704738B50446B3
:2011E000134694F83920202A2AD139B333B394F83820012A24D0012284F838200025206BF0
:20120000E3842122E56384F839200E4AA3842162C2630D4A02640D4AC0E91325226804322B
:20122000FFF74CFB23686FF040021A605A6984F8385042F080025A61284638BD0120FCE72E
:201240000220FAE751120108831201088F1201080268126812F4807208B5836B0CD1DA8415
:201260001A68516921F080015161D16841F04001D160202283F839201846FFF705F908BDE5
:20128000704708B5806BFFF7FBFF08BD7047816B08B50B685A6991F8390021280AD11206A6
:2012A00008D50022CA84DA6822F0C002DA60202281F839205B6991F83A20222A06D15B0652
:2012C00004D50023CB850846FFF77BFFCB6B43F01003CB630846FFF7D9FF08BD70B50D4DFA
:2012E0000D4C641BA4100026A64209D10B4D0C4C00F020F8641BA4100026A64205D170BD7E
:2013000055F8043B98470136EEE755F8043B98470136F2E74C1301084C1301084C130108A3
:201320005013010800000000000000000102030406070809F8B500BFF8BC08BC9E4670479A
:20134000F8B500BFF8BC08BC9E467047AD01010889010108010100000024F4FFFFFFFFFFAF
:20136000FFFFFFFFFFFFFFFFFFFFFFFFFFFFFFFFFFFFFFFFFFFFFFFFFFFFFFFFFFFFFFFF8D
:20138000FFFFFFFFFFFFFFFFFFFFFFFFFFFFFFFFFFFFFFFFFFFFFFFFFFFFFFFFFFFFFFFF6D
:2013A000FFFFFFFFFFFFFFFFFFFFFFFFFFFFFFFFFFFFFFFFFFFFFFFFFFFFFFFFFFFFFFFF4D
:2013C000FFFFFFFFFFFFFFFFFFFFFFFFFFFFFFFFFFFFFFFFFFFFFFFFFFFFFFFFFFFFFFFF2D
:00000001FF